:020000009C2D35
:1000080070082000A7007108A6007208A5007308F0
:10001800A4007408A3007508A2007608A100803126
:10002800111C1A281110A80A0319A90A131E32282C
:100038002600131C3228200013122100131204304A
:1000480026009300AE237008BD007108BE00720838
:10005800BF007308C0002100131657282000131E84
:100068005728131221001312053026009300AE23DF
:100078007008C5007108C6007208C7007308C80078
:100088003D08C5023E08C63B3F08C73B4008C83B81
:1000980021001316AE237008B9007108BA0072085F
:1000A800BB007308BC002000931E702826001A1C91
:1000B80070282000931221009312043026009A0021
:1000C800AE237008C1007108C2007208C30073082B
:1000D800C4002100931695282000931E952893129A
:1000E80021009312053026009A00AE237008C9003B
:1000F8007108CA007208CB007308CC004108C90215
:100108004208CA3B4308CB3B4408CC3B210093162A
:10011800AE237008B9007108BA007208BB007308F2
:10012800BC0020002708F0002608F1002508F2008E
:100138002408F3002308F4002208F5002108F6003B
:020148000900AC
:10014A007408F8027508031C750FF9027608031C77
:10015A00760FFA027708031C770FFB02F30D0730BC
:10016A00FC00730DF80DF90DFA0DFB0D7408731CE4
:10017A00CC28F8027508031C750FF9027608031CCF
:10018A00760FFA027708031C770FFB02D928F807C3
:10019A0075080318750FF90776080318760FFA071A
:1001AA0077080318770FFB07F30DFC0BB628720DBF
:1001BA00F80DF90DFA0DFB0D7408731CF228F802FC
:1001CA007508031C750FF9027608031C760FFA02EC
:1001DA007708031C770FFB02FF28F8077508031836
:1001EA00750FF90776080318760FFA0777080318C8
:1001FA00770FFB07F20D0730FC00720DF80DF90DB1
:10020A00FA0DFB0D7408721C1829F8027508031CF4
:10021A00750FF9027608031C760FFA027708031C99
:10022A00770FFB022529F80775080318750FF907D8
:10023A0076080318760FFA0777080318770FFB0773
:10024A00F20DFC0B0229710DF80DF90DFA0DFB0DDB
:10025A007408721C3E29F8027508031C750FF9020E
:10026A007608031C760FFA027708031C770FFB0245
:10027A004B29F80775080318750FF907760803184C
:10028A00760FFA0777080318770FFB07F10D073087
:10029A00FC00710DF80DF90DFA0DFB0D7408711CB7
:1002AA006429F8027508031C750FF9027608031C05
:1002BA00760FFA027708031C770FFB027129F807F9
:1002CA0075080318750FF90776080318760FFA07E9
:1002DA0077080318770FFB07F10DFC0B4E29700DF9
:1002EA00F80DF90DFA0DFB0D7408711C8A29F80234
:1002FA007508031C750FF9027608031C760FFA02BB
:10030A007708031C770FFB029729F807750803186B
:10031A00750FF90776080318760FFA077708031896
:10032A00770FFB07F00D0730FC00700DF80DF90D83
:10033A00FA0DFB0D7408701CB029F8027508031C2D
:10034A00750FF9027608031C760FFA027708031C68
:10035A00770FFB02BD29F80775080318750FF9070F
:10036A0076080318760FFA0777080318770FFB0742
:10037A00F00DFC0B9A297018D0297408F807750833
:10038A000318750FF90776080318760FFA07770826
:08039A000318770FFB070800B0
:1003A200FB09FA09F909F809F80A0319F90A031904
:0803B200FA0A0319FB0A080016
:1003BA0020002230FC00F801F901FA01FB01FC03DC
:1003CA000319122A0310FB0CFA0CF90CF80CF30CA3
:1003DA00F20CF10CF00C031CE429FC030319042AA7
:1003EA007408F80775080318750FF90776080318D3
:1003FA00760FFA0777080318770FFB07E8297408BE
:10040A00F80775080318750FF90776080318760FA9
:0C041A00FA0777080318770FFB070800AB
:100426007408003A031D2C2A7508003A031D2C2A6D
:100436007608003A031D2C2A7708003A031D2C2A59
:10044600FF30F000FF30F100FF30F2007F30F300A4
:10045600C42A2000FC01F71BFC0AFD01FB01FA017E
:10046600F901F80173087204710470040319BF2AB4
:1004760073087706A000A01BFD09F71F4D2AF40993
:10048600F509F609F709F40A0319F50A0319F60A34
:100496000319F70AF31F5A2AF009F109F209F309B9
:1004A600F00A0319F10A0319F20A0319F30A730889
:1004B6007704A000A01B7B2AA520FC1B982AFD1F01
:1004C600BF2AF009F109F209F309F00A0319F10A42
:1004D6000319F20A0319F30AF809F909FA09FB09DB
:1004E600F80A0319F90A0319FA0A0319FB0ABF2ABB
:1004F600F71F922AF31B8C2A7308FB007208FA0076
:100506007108F9007008F800F301F201F101F00139
:10051600622AF301F201F101F001F00A0034F30955
:10052600F209F109F009FC175F2AF80A0319F90A1A
:100536000319FA0A0319FB0A74087802031D622AD2
:1005460075087902031D622A76087A02031D622A5B
:1005560077087B02031D622AFB01FA01F901F80103
:10056600F00A0319F10A0319F20A0319F30AF31F31
:10057600622AA0012016FF34A0017C1CC32AD121C7
:04058600003E08002B
:10058A0021002008F4002108F5002208F6002308BB
:10059A00F7002408F4022508F53B2608F63B27084D
:1005AA00F73B3008F0003108F1003208F200330856
:1005BA00F3002C08F0022D08F13B2E08F23B2F081D
:1005CA00F33BDD2121002808F4002908F5002A0858
:1005DA00F6002B08F7002408F4022508F53B260844
:1005EA00F63B2708F73B132221002C08F0072D08B9
:0C05FA00F13D2E08F23D2F08F33D0800F3
:1006060023009E18082B0000032B200069082300F6
:040616009A0008003E
:10061A00FF302000D100FF30D200FF30D300FF307E
:0E062A00D400F03021009E009D011D14080038
:10063800003020006A06031D232B01306906031DC4
:10064800282B6B0825009100003020006A06031D46
:100658002F2B02306906031D342B6B0825009800E8
:02066800080088
:10066A00003020006A06031D3C2B01306906031D79
:10067A00592B250016109610003020006C06031D19
:10068A00482B01306B06031D4D2B0E122500161444
:10069A00003020006C06031D542B02306B06031D2C
:1006AA00592B8E1225009614003020006A06031D6D
:1006BA00602B02306906031D7D2B25001D109D103D
:1006CA00003020006C06031D6C2B01306B06031DE5
:1006DA00712B0C1225001D14003020006C06031D1E
:1006EA00782B02306B06031D7D2B8C1225009D147E
:0206FA000800F6
:1006FC0003302000DD000330DE006930DF00003005
:10070C00E000FF30D900FF30DA000030DB000030B1
:10071C00DC00FF30D500FF30D6000030D7000030B1
:10072C00D800FF30CD00FF30CE000030CF000030BD
:10073C00D00023009E1690309D0021008E160E16C0
:10074C002000911EAD2B23001908F000A62B0800E9
:10075C0020001708F100F00116087004F50071086C
:10076C00F6000030F6042908F3002808F200F00126
:10077C00F1017508F0077608F13D0030F23DF33DCC
:02078C00080063
:10078E00AE237008F4007108F5007208F6007308C5
:10079E00F7003908F4023A08F53B3B08F63B3C08F3
:1007AE00F73B7708003C031DE62B76081E3C031D25
:1007BE00E62B7508843C031DE62B7408803C031859
:1007CE00ED2B0130F0000030F100EF2BF001F101C4
:0207DE00080011
:1007E0002000E40161088400620885000008E3003D
:1007F0006308003A03190A2C6308E9000323200068
:10080000E40A6408610784000030623D8500000846
:06081000E300F82B0800D4
:100816002000981218169813181318142100111492
:08082600200096019701080073
:10082E0020004508E5004608E6004908E7004A08AA
:10083E00E80004304602031D262C4C3045020318F6
:10084E002C2C4C30E5000430E6006608073C031DF6
:10085E00322C65086C3C0318382C6C30E5000730E0
:10086E00E60004306802031D3E2C4C30670203186C
:10087E00442C4C30E7000430E8006808073C031DA8
:10088E004A2C67086C3C0318502C6C30E70007307C
:10089E00E80006306602031D562C0E306502031862
:1008AE00642C6608053C031D5E2C6508AA3C0318E3
:1008BE00642CDC30E5000530E60006306802031DCE
:1008CE006A2C0E3067020318782C6808053C031D4D
:1008DE00722C6708AA3C0318782CDC30E700053030
:1008EE00E80065082100A000200066082100A10094
:1008FE00A201A3014C30A4000430A500A601A7015B
:10090E006C30A8000730A900AA01AB010130AC0081
:10091E00FF30AD00FF30AE00AF00FF30B000B101D0
:10092E00B201B301C52270082000E1007108E20097
:10093E0067082100A000200068082100A100A20184
:10094E00A3014C30A4000430A500A601A7016C3011
:10095E00A8000730A900AA01AB010130AC00FF309E
:10096E00AD00FF30AE00AF00FF30B000B101B201FC
:10097E00B301C52270082000E3007108E400803046
:10098E006206F00080307002031DCF2C0030610231
:10099E00031CE52C0130E9000030EA000230EB00C8
:1009AE000030EC00352301302000E9000030EA0071
:1009BE006108EB006208EC001C23012D2000610889
:1009CE00003CE1006208031C013EE201E20201303C
:1009DE00E9000030EA000130EB000030EC00352376
:1009EE0001302000E9000030EA006108EB006208E7
:1009FE00EC001C23803020006406F0008030700272
:100A0E00031D0B2D00306302031C212D0230E90063
:100A1E000030EA000230EB000030EC0035230230EB
:100A2E002000E9000030EA006308EB006408EC00E7
:100A3E001C233D2D20006308003CE3006408031CCA
:100A4E00013EE401E4020230E9000030EA00013028
:100A5E00EB000030EC00352302302000E9000030BE
:0E0A6E00EA006308EB006408EC001C2308009B
:100A7C0020009C01FF309B0025009E101E101614B8
:100A8C009614161196111616FF3091003C309300F7
:100A9C009E111E111D149D141D119D111D16FF304C
:0E0AAC0098003C309A00043020009C000800A6
:100ABA0012001E00F003031D5D2DF103031D5D2DC1
:020ACA00080022
:100ACC002200910193019D171D1523009F15CF3016
:100ADC009B009C011E157E230230FB000430FC00A1
:100AEC00BA30FD00FD0B782DFC0B782DFB0B782D0F
:100AFC00000022009E141E1423008C0101308E0075
:100B0C000D238C100C158C150C128C120E148E14CB
:100B1C000E158E150E128E128B170B1713169316AD
:0C0B2C0005302600930005309A000800F8
:100B38002000A801A9016D30AA006930AB006B3014
:100B4800AC007230AD006F30AE006530AF002030C1
:100B5800B0000A30B100B2015330B3007430B400B1
:100B68006130B5007230B6007430B700B801723029
:100B78002100990066253E250B243330E100003022
:100B8800E200F0230130E9000030EA000230EB0017
:100B98000030EC00352302302000E9000030EA0084
:100BA8000230EB000030EC00352301302000E90072
:100BB8000030EA00EB01EC011C2302302000E900C0
:100BC8000030EA00FF30EB00EC011C230B30FB0087
:100BD8002630FC005D30FD00FD0BF02DFC0BF02DE8
:100BE800FB0BF02D0000000020302000C9004E3023
:100BF800CA00CB01CC012030C5004E30C600C70169
:100C0800C801C7237008710403191A2E0130E900BE
:100C18000030EA00EB01EC011C2302302000E9005F
:100C28000030EA00EB01EC011C231B2E1724052ED3
:020C38001C2E70
:020000040001F9
:04000E00A43F1317E1
:00000001FF
