:02000000B12924
:1000080070082000A1007108A0008A018301111C5A
:1000180011281110AB0A0319AC0A131E292826004F
:10002800131C292820001312210013120430260063
:10003800930098217008B1007108B2007208B300EB
:100048007308B400210013164E282000131E4E28F2
:10005800131221001312053026009300982170080E
:10006800AD007108AE007208AF007308B000310827
:10007800AD023208AE3B3308AF3B3408B03B210039
:10008800131698217008BD007108BE007208BF00E1
:100098007308C0002000931E672826001A1C6728D2
:1000A8002000931221009312043026009A00982110
:1000B8007008B9007108BA007208BB007308BC0068
:1000C800210093168C282000931E8C28931221005F
:1000D8009312053026009A0098217008B50071081F
:1000E800B6007208B7007308B8003908B5023A08B4
:1000F800B63B3B08B73B3C08B83B21009316982118
:100108007008BD007108BE007208BF007308C00007
:0C01180020002108F0002008F100090080
:10012400FF302000C500FF30C600FF30C700FF309D
:10013400C800FF30C100FF30C2000030C3000030EF
:10014400C400FF30D100FF30D2000030D3000030B3
:10015400D400FF30CD00FF30CE000030CF0000309F
:10016400D00023009E1690309D0021008E160E169E
:100174002000911EC12823001908F000BA280800A5
:10018400FF302000C900FF30CA00FF30CB00FF3031
:0E019400CC00F03021009E009D011D140800DB
:1001A20012001E00F003031DD128F103031DD12804
:0201B200080043
:1001B400003020005606031DE12801305506031DBA
:1001C400FC28250016109610003020005806031D48
:1001D400ED2801305706031DF128250016140030C0
:1001E40020005806031DF82802305706031DFC287A
:1001F40025009614003020005606031D0329023002
:100204005506031D1E2925001D109D1000302000D9
:100214005806031D0F2901305706031D1329250015
:100224001D14003020005806031D1A2902305706F9
:0A023400031D1E2925009D1408007B
:10023E00003020005606031D262901305506031DE9
:10024E002B29570825009100003020005606031D6B
:10025E00322902305506031D37295708250098000C
:02026E00080086
:100270002200910193019D171D1523009F15CF307A
:100280009B009C011E1592200230FB000430FC00F4
:10029000BA30FD00FD0B4A29FC0B4A29FB0B4A2909
:1002A000000022009E141E1423008C0101308E00D9
:1002B000C2200C158C150C128C120E148E140E15F7
:1002C0008E150E128E128B170B1713169316053000
:0A02D0002600930005309A00080094
:1002DA0020009C01FF309B0025009E101E10161462
:1002EA009614161196111616FF3091003C309300A1
:1002FA009E111E111D149D141D119D111D16FF30F6
:0E030A0098003C309A00043020009C0008004F
:100318002000981218169813181318142100111495
:08032800200096019701080076
:1003300020001708F100F00116087004F50071089C
:10034000F6000030F6042C08F3002B08F200F00150
:10035000F1017508F0077608F13D0030F23DF33DFC
:02036000080093
:100362006D302000A2006930A3006B30A40072300F
:10037200A5006F30A6006530A7002030A8000A3023
:10038200A900AA01AB01AC01723021009900382109
:100392006D218C210130D5000030D6000130D7000C
:1003A2000030D800DA2002302000D5000030D6001C
:1003B2000130D7000030D800DA2001302000D5000B
:1003C2000030D6007F30D7000030D8001F21023025
:1003D2002000D5000030D600FF30D700D8011F2101
:1003E20002302000D5000030D600D701D8011F21ED
:1003F20002302000D5000030D6000130D700003096
:10040200D800DA2002302000D5000030D600FF30BC
:10041200D700D8011F211F30FB007130FC001E30B5
:10042200FD00FD0B122AFC0B122AFB0B122A000004
:1004320002302000D5000030D600D701D8011F219C
:1004420002302000D5000030D6000230D700003044
:10045200D800DA2002302000D5000030D600FF306C
:10046200D700D8011F211F30FB007130FC001E3065
:10047200FD00FD0B3A2AFC0B3A2AFB0B3A2A00003C
:04048200F129422AF0
:020000040001F9
:04000E00E43F1317A1
:00000001FF
