:02000000792B5A
:100008008A0183012000111C0D281110A30A03196D
:04001800A40A09002D
:10001C002000FB01FA01F901F801A001730DF80DA4
:10002C007408F8027508031C750FF9027608031C96
:10003C00760FFA027708031C770FFB020001031CF2
:10004C000130A002F30D0730FC00730DF80DF90D13
:10005C00FA0DFB0DA00D7408731C4628F8027508E8
:10006C00031C750FF9027608031C760FFA02770849
:10007C00031C770FFB020001031C0130A002572860
:10008C00F80775080318750FF90776080318760F2B
:10009C00FA0777080318770FFB07000103180130E4
:1000AC00A007F30DFC0B2B28720DF80DF90DFA0DB2
:1000BC00FB0DA00D7408731C7528F8027508031C41
:1000CC00750FF9027608031C760FFA027708031CE9
:1000DC00770FFB020001031C0130A0028628F807F1
:1000EC0075080318750FF90776080318760FFA07C9
:1000FC0077080318770FFB07000103180130A007DE
:10010C00F20D0730FC00720DF80DF90DFA0DFB0D18
:10011C00A00D7408721CA428F8027508031C750F36
:10012C00F9027608031C760FFA027708031C770F86
:10013C00FB020001031C0130A002B528F80775086A
:10014C000318750FF90776080318760FFA07770866
:10015C000318770FFB07000103180130A007F20DFD
:10016C00FC0B8928710DF80DF90DFA0DFB0DA00D86
:10017C007408721CD328F8027508031C750FF90259
:10018C007608031C760FFA027708031C770FFB0224
:10019C000001031C0130A002E428F80775080318BD
:1001AC00750FF90776080318760FFA077708031806
:1001BC00770FFB07000103180130A007F10D073082
:1001CC00FC00710DF80DF90DFA0DFB0DA00D740866
:1001DC00711C0229F8027508031C750FF9027608C8
:1001EC00031C760FFA027708031C770FFB02000141
:1001FC00031C0130A0021329F80775080318750FAA
:10020C00F90776080318760FFA0777080318770FA3
:10021C00FB07000103180130A007F10DFC0BE728C8
:10022C00700DF80DF90DFA0DFB0DA00D7408711C75
:10023C003129F8027508031C750FF9027608031CA6
:10024C00760FFA027708031C770FFB020001031CE0
:10025C000130A0024229F80775080318750FF90739
:10026C0076080318760FFA0777080318770FFB0741
:10027C00000103180130A007F00D0730FC00700DD1
:10028C00F80DF90DFA0DFB0DA00D7408701C60290A
:10029C00F8027508031C750FF9027608031C760F1B
:1002AC00FA027708031C770FFB020001031C0130D4
:1002BC00A0027129F80775080318750FF90776085D
:1002CC000318760FFA0777080318770FFB0700015E
:1002DC0003180130A007F00DFC0B45297018842978
:1002EC007408F80775080318750FF90776080318D2
:0E02FC00760FFA0777080318770FFB07080044
:10030A0023009E188A290000852920005708230007
:04031A009A0008003D
:10031E0085302000AE000130AF005730B000003005
:10032E00B100FF30B200FF30B3000030B400003037
:10033E00B500FF30B600FF30B7000030B800003017
:10034E00B900FF30BE00FF30BF000030C0000030EB
:10035E00C10023009E1690309D0021008E160E16B1
:10036E002000911EBE2923001908F000B7290800AD
:10037E0020001708F100F00116087004F50071084E
:10038E00F6000030F6042408F3002308F200F00112
:10039E00F1017508F0077608F13D0030F23DF33DAE
:0203AE00080045
:1003B00020009C01FF309B0025009E101E1016148B
:1003C0009614161196111616FF3091003C309300CA
:1003D0009E111E111D149D141D119D111D16FF301F
:0E03E00098003C309A00043020009C00080079
:1003EE00BF217008CD007108CE007208CF007308CF
:1003FE00D0000C1D292ABF217008F4007108F500E9
:10040E007208F6007308F7004D08F4024E08F53B2B
:10041E004F08F63B5008F73B7708003C031D212A96
:10042E0076081E3C031D212A7508843C031D212AD3
:10043E007408803C0318282AF001F101F201F3013F
:10044E00A62A002ABF217008CD007108CE007208BE
:10045E00CF007308D0000C195B2ABF217008F4007E
:10046E007108F5007208F6007308F7004D08F402E3
:10047E004E08F53B4F08F63B5008F73B7708003C1B
:10048E00031D532A76081E3C031D532A7508843C0F
:10049E00031D532A7408803C03185A2AF001F101F7
:1004AE00F201F301A62A322ABF217008BA007108A0
:1004BE00BB007208BC007308BD007008CD00710847
:1004CE00CE007208CF007308D0000C1D952ABF21F4
:1004DE007008F4007108F5007208F6007308F70052
:1004EE004D08F4024E08F53B4F08F63B5008F73B1B
:1004FE007708003C031D8D2A76081E3C031D8D2AAD
:10050E007508843C031D8D2A7408803C0318942AB8
:10051E00F001F101F201F301A62A6C2ABF213A087B
:10052E00F0023B08F13B3C08F23B3D08F33B700800
:10053E00BA007108BB007208BC007308BD00080049
:10054E002000D301D40100305402031DB02A0A301A
:10055E0053020318BE2A5308510786005408523D11
:10056E00870020308100D30A0319D40AAA2A53081F
:10057E00510786005408523D870081010130D30295
:10058E000030D43B53085107D5005408523DD600D5
:10059E000A30F400F501F601F7014D08F0004E089F
:1005AE00F1004F08F2005008F3000E207808F0001A
:1005BE007908F1007A08F2007B08F3003030F0077A
:1005CE005508860056088700700881000A30F4002E
:1005DE00F501F601F7014D08F0004E08F1004F0845
:1005EE00F2005008F3000E207008CD007108CE0006
:1005FE007208CF007308D0000030F4007306031D9C
:10060E00122B74087206031D122B74087106031D3B
:10061E00122B7008003A031D152B1A2B0130D30232
:08062E000030D43BC92A08008A
:100636002200910193019D171D1523009F15CF30B0
:100646009B009C011E158F210230FB000430FC002C
:10065600BA30FD00FD0B2D2BFC0B2D2BFB0B2D2B90
:10066600000022009E141E1421000C158C150C127D
:100676008C1223008C0121000E148E140E158E157B
:0C0686000E128E12013023008E000800BE
:100692002000981218169813181318142100111418
:0806A2002000960197010800F9
:1006AA002000D0014D0884004E0885000008CF00C4
:1006BA004F08003A03196F2B4F08D70085212000F5
:1006CA00D00A50084D07840000304E3D85000008CE
:0606DA00CF005D2B0800BB
:1006E00012001E00F003031D702BF103031D702B7D
:0206F000080000
:1006F2000A302000A100A201A301A4016D30A500CF
:100702006930A6006B30A7007230A8006F30A900D4
:100712006530AA002030AB000A30AC00AD01723067
:10072200210099008B170B171B23D8214923F7218E
:100732007008CD007108CE007208CF007308D00097
:100742004230D1000030D200A7224230CD0000302A
:10075200CE0055232130CD000030CE0055231A3073
:10076200FC00F830FD00FD0BB42BFC0BB42B000099
:04077200982BBA2BDB
:020000040001F9
:04000E00A43F1317E1
:00000001FF
