:02000000672D6A
:1000080070082000A1008A018301931D0F28931115
:10001800BE0A0319BF0A131E22282600131C222811
:10002800200013122100131204302600930021002F
:100038001316200096019701181436282000131E65
:1000480036281312181021001312053026009300C9
:1000580020001708CF00CE011608CE040030CF04C8
:10006800210093162000931E4A2826001A1C4A28AD
:100078002000931221009312043026009A002100D8
:10008800931620009601970118145E282000931EED
:100098005E289312181021009312053026009A004A
:1000A80020001708D100D0011608D0040030D10470
:0C00B8002100131620002108F0000900B0
:1000C4002000F801F9011030FC00710DF80DF90D54
:1000D4007408F8027508031C750FF90203187928CF
:1000E4007408F80775080318750FF9070310F00D65
:0800F400F10DFC0B6728080068
:0E00FC00F201F101F001F801F30100300800FB
:10010A007B15FB1F8F280130F300F201F101F0018A
:08011A00FA0DF20CFF300800A1
:08012200FA1FF213003008007F
:10012A00FB14FB1F9F28FF30F300F200F100F000E0
:08013A00FA0DF20CFF30080081
:1001420023009E18A6280000A12821004A082300A7
:040152009A00080007
:100156007B14FB1FB628F201FA1FFF30F200F100F4
:0A016600F000FA0DF20CFF30080063
:10017000A0017208031DCD287108F2007008F1007B
:10018000F001A0157208031DCD287108F200F101DD
:10019000A011201672080319DB282008F302031DA2
:1001A000031CDF280310F21BE328F00DF10DF20D04
:1001B000F30BD328DF280130FC007E20E628023034
:0E01C000FC008520E6280430FC009120080099
:1001CE002100CE0105304E020318F7284E084C07C9
:1001DE00860000304D3D870020308100CE0AE92890
:1001EE004E084C07860000304D3D87008101CE033E
:1001FE004E084C07CF0000304D3DD0000A30F400C1
:10020E00F5014A08F0004B08F10062207808F00072
:10021E007908F1003030F00721004F0886005008B1
:10022E008700700881000A30F400F5014A08F000DA
:10023E004B08F100622070082100CA007108CB0043
:10024E0000307106031D2D2900307006031D302964
:08025E003229CE03FF2808003D
:100266007C186929FC183A297C1988293329A001A8
:100276007208031D5A297108F2007008F100780807
:10028600F000F801A0157208031D5A297108F20042
:100296007008F100F001A01120167208031D5A29FA
:1002A6007108F200F101A015720803197C292008D3
:1002B600F302031D031C80290310F21B6929F80DA4
:1002C600F00DF10DF20DF30B602980297B1B701CDC
:1002D6008429F81F8429F00A0319F10A0319F20A7E
:1002E600031D8429F20CF10CF00CF30A031988297A
:1002F60084290130FC007E208B290230FC008520F9
:100306008B290430FC0091208B290830FC009520B5
:0403160000000800DB
:10031A00A1302000D2000030D300CA30D40000300F
:10032A00D500FF30DA00FF30DB000030DC0000309F
:10033A00DD00FF30E200FF30E3000030E40000306F
:10034A00E500FF30DE00FF30DF000030E000003063
:10035A00E10023009E1690309D0021008E160E1695
:10036A002000911EBC2923001908F000B5290800B5
:10037A00FF302000D600FF30D700FF30D800FF3012
:0E038A00D900F03021009E009D011D140800D6
:100398002100C601C7014208C8004308C9008030CF
:1003A8004306F00080307002031DDC290030420251
:1003B8000318EA290130C6000030C7004208003C93
:1003C800C8004308031C013EC901C9024808CA0005
:1003D8004908CB004408CC004508CD00E72006308A
:1003E8002000EE000030EF006F08003C031DFE29DE
:1003F8006E08003C03181F2A6E0821004407860077
:1004080020006F082100453D8700013020006E0262
:10041800F00000306F3BF1007008210044078400B1
:100428007108453D85000008810001302000EE027A
:100438000030EF3BF8292100440886004508870072
:10044800203081004608470403194F2A2000EE0196
:10045800EF016E0821004407840020006F08210086
:10046800453D85000008203A031D3F2A2000EE0A7A
:100478000319EF0A2D2A20000130EE020030EF3B6D
:100488006E0821004407860020006F082100453DC2
:0804980087002D3081000800EF
:1004A0002100C30120006E0884006F088500000849
:1004B0002100C2004208003A03196E2A4208CA000D
:1004C000A1202100C30A430820006E0784000030E9
:0E04D0006F3D850000082100C2005A2A080076
:1004DE00200072087606A000F801F9017308770271
:1004EE00031C912A7708FD007308F7007D08F300BE
:1004FE007608FD007208F6007D08F2007508FD0012
:10050E007108F5007D08F1007408FD007008F40014
:10051E007D08F000770803190A2B7208FA00F2170B
:10052E00F61777087302F7000319C42A083077020A
:10053E00031CBA2AF7007408F9007508F40076084F
:10054E00F500F60108307702031CBA2AF70074088A
:10055E00F9007508F400F50108307702031CBA2A79
:10056E007A08F2000A2B77080319C42A0310F60C36
:10057E00F50CF40CF90CF70BBD2AA01FD12AF909C2
:10058E00F409F509F609F90A0319F40A0319F50A2B
:10059E000319F60A7908F80774080318740FF007A0
:1005AE0075080318750FF10776080318760FF20712
:1005BE00A01BEA2A031CFA2AF20CF10CF00CF80C20
:1005CE00F30FFA2A062B0318FE2AF809F009F1098F
:1005DE00F209F80A0319F00A0319F10A0319F20ACB
:1005EE008030FA06022B0130FC0033210C2B023036
:1005FE00FC0033210C2B0430FC00B8200C2B0830EF
:0E060E00FC0095200C2B0030FC0000000800C2
:10061C0020007008F8007108F000F101F201F301FC
:10062C00FB01FC019630F300FA017008F100780828
:0A063C00F000F801F201B8200800F8
:1006460020007008F800FB01FC019E30F300FA015F
:0E065600F201F101F0010230FC003321080036
:100664002000FB01FC01F80173080319AA2BF217FF
:100674009E30F302F31B412B0319412B9A2BF309F0
:10068400F30A08307302031C6F2BF300F80D700893
:10069400F8007108F0007208F100F20108307302EA
:1006A400031C6F2BF300F80D7008F8007108F000BC
:1006B400F10108307302031C6F2BF300F80D70086E
:1006C400F800F00108307302031C6F2BF300F80DDF
:1006D400F8017308031D0310792B73080319792B90
:1006E4000310F20CF10CF00CF80CF30B722B7B1BC7
:1006F400781C872B031C872BF80A0319F00A0319AB
:10070400F10A0319F20AF21BA72BFA1FAA2BF2090A
:10071400F109F009F809F80A0319F00A0319F10AB2
:100724000319F20AAA2BF201F101F001F801AA2B34
:100734007B14FB1FAD2BF201FA1FAD2BF200F1006D
:10074400F000F800FA0DF20CAD2B0130FC00AF2BD9
:100754000030FC00AF2BFF30FC00FC080319B32B66
:10076400AB207208F3007108F2007008F1007808F9
:04077400F000080089
:100778002000FB017308031D77080319122C720867
:100788007606FA007708F3077E30031CCF2BF302B6
:100798000318152CD22BF302031C182C7208F8002E
:1007A8007108FC007008FD00F817F6170310F20135
:1007B800F101F0011830A0007D1CEC2B7408F00743
:1007C80075080318750FF10776080318760FF207F6
:1007D800F20CF10CF00CF80CFC0CFD0C0310A00B47
:1007E800E02BF21BFC2BF80DF00DF10DF20DF303CD
:1007F8007B1B701C0E2CF81F0E2CF00A0319F10A33
:100808000319F20A031D0E2CF20CF10CF00CF30A7A
:100818000319152CFA1FF21300301A2C01307E2010
:100828001A2C023095201A2C04308520000008006C
:1008380028001C08F00023236F30F4001230F50064
:100848000330F6007A30F700BC2370082100B300AB
:100858007108B4007208B5007308B60020003E089D
:10086800F0003F08F100F035F10DF035F10DF035ED
:10087800F10D0E2321003308F4003408F500350883
:0C088800F6003608F7006F22322308004B
:100894002A302000EE000030EF0050223308C2005E
:1008A4003408C300B730C4000030C500CC21B730D1
:1008B4002000EE000030EF00502228302000EE002F
:1008C4000030EF00502234302000EE000030EF0002
:1008D40050223508C2003608C300B730C4000030C7
:1008E400C500CC21B7302000EE000030EF005022CC
:1008F40040302000EE000030EF0050220230FB00B8
:100904000430FC00BA30FD00FD0B862CFC0B862C59
:08091400FB0B862C000008001B
:10091C00003021003406031D952C01303306031DD5
:10092C009A2C350825009100003021003406031D57
:10093C00A12C02303306031DA62C35082500980087
:02094C000800A1
:10094E00003021003406031DAE2C01303306031D8A
:10095E00CD2C250016109610003021003606031DF2
:10096E00BA2C01303506031DC02C20000E122500B6
:10097E001614003021003606031DC72C0230350632
:10098E00031DCD2C20008E12250096140030210060
:10099E003406031DD42C02303306031DF32C250020
:1009AE001D109D10003021003606031DE02C013075
:1009BE003506031DE62C20000C1225001D140030F8
:1009CE0021003606031DED2C02303506031DF32CD7
:0A09DE0020008C1225009D14080073
:1009E80022009D171D1523009F15CF309B009C01E9
:1009F8001E158D210230FB000430FC00BA30FD00CA
:100A0800FD0B042DFC0B042DFB0B042D000008002E
:100A180020009C01FF309B0025009E101E1016141C
:100A28009614161196111612FF3091003C3093005F
:100A38009E111E111D149D141D119D111D12FF30B4
:0E0A480098003C309A00043020009C0008000A
:100A56002000981218169813181318149601970167
:020A6600080086
:100A680012001E00F003031D342DF103031D342D65
:020A7800080074
:100A7A00F93028009D0007309E00210093150800D8
:100A8A007230210099002200910193019E141E14D4
:100A9A0023008C0101308E00BD210C108C100C1526
:100AAA008C150C128C120E148E140E158E150E1235
:100ABA008E128B170B1793160530260093000530FC
:040ACA009A00080086
:100ACE003C2645250C252B253D25F42422302000DF
:100ADE00EE000030EF0050220130B3000030B400C1
:100AEE000230B5000030B600A72402302100B3005A
:100AFE000030B4000230B5000030B600A72401303B
:100B0E002100B3000030B400B501B6018E240230CE
:100B1E002100B3000030B400B501B6018E240B30B5
:100B2E00FB002630FC005D30FD00FD0B9C2DFC0B08
:100B3E009C2DFB0B9C2D0000000020004E08210078
:100B4E00AB0020004F082100AC00AD01AE0120002B
:100B5E0050082100AF00200051082100B000B10163
:100B6E00B2012B08B3002C08B4002F08B5003008D2
:100B7E00B6004A241C247008E6007108E7007208CB
:100B8E00E8007308E9000230FB000430FC00BA30C4
:100B9E00FD00FD0BD02DFC0BD02DFB0BD02D00003E
:100BAE001C247008EA007108EB007208EC00730850
:100BBE00ED006608EA026708EB3B6808EC3B690843
:100BCE00ED3B4230EE000030EF00502220006A086C
:100BDE002100C20020006B082100C300A030C40019
:100BEE000030C500CC21A0302000EE000030EF0018
:100BFE0050224C302000EE000030EF005022A42D89
:020C0E00072EAF
:100C78000B308400863085003030F0000130F10000
:0C0C880022308600003087003425080070
:0C0C16005334743461347234743400348C
:040C2200093400345D
:100C2600533469346E3461346C34203431343A349C
:040C36002034003432
:100C3A00533469346E3461346C34203432343A3487
:040C4A00203400341E
:040C4E00003400343A
:040C52000A3400342C
:100C5600443465346C3474346134203474343A3436
:040C66002034003402
:040C6A000A34003414
:040C6E00DC34053439
:040C7200DC34053435
:020000040001F9
:04000E00A43F1317E1
:00000001FF
