:02000000702965
:1000080070082000A1007108A0008A018301111C5A
:1000180011281110A20A0319A30A131E2928260061
:10002800131C292820001312210013120430260063
:10003800930057217008B0007108B1007208B2002F
:100048007308B300210013164E282000131E4E28F3
:10005800131221001312053026009300572170084F
:10006800B8007108B9007208BA007308BB003008FC
:10007800B8023108B93B3208BA3B3308BB3B210010
:10008800131657217008A4007108A5007208A6006D
:100098007308A7002000931E672826001A1C6728EB
:1000A8002000931221009312043026009A00572151
:1000B8007008AC007108AD007208AE007308AF009C
:1000C800210093168C282000931E8C28931221005F
:1000D8009312053026009A0057217008A80071086D
:1000E800A9007208AA007308AB002C08A8022D0802
:1000F800A93B2E08AA3B2F08AB3B2100931657219A
:100108007008A4007108A5007208A6007308A7006B
:0C01180020002108F0002008F100090080
:10012400FF302000B400FF30B500FF30B600FF30D0
:0E013400B700F03021009E009D011D14080050
:1001420012001E00F003031DA128F103031DA128C4
:020152000800A3
:100154002200910193019E141E1423008C0101308E
:100164008E0092200C108C100C158C150C128C1215
:100174000E148E140E158E150E128E128B170B176D
:100184001316931605302600930005309A000800D4
:10019400003020003D06031DD12801303C06031D1C
:1001A400D6283E0825009100003020003D06031D9E
:1001B400DD2802303C06031DE2283E082500980095
:0201C400080031
:1001C60020009C01FF309B0025009E101E10161477
:1001D6009614161196111612FF3091003C309300BA
:1001E6009E111E111D149D141D119D111D12FF300F
:0E01F60098003C309A00043020009C00080065
:1002040020009812181698131813181421001114AA
:0802140020009601970108008B
:10021C00003020003D06031D152901303C06031D4E
:10022C003229250016109610003020003F06031DC1
:10023C00212901303E06031D26290E122500161415
:10024C00003020003F06031D2D2902303E06031D01
:10025C0032298E1225009614003020003D06031D15
:10026C00392902303C06031D562925001D109D100E
:10027C00003020003F06031D452901303E06031DBA
:10028C004A290C1225001D14003020003F06031DC6
:10029C00512902303E06031D56298C1225009D144F
:0202AC00080048
:1002AE0020001708F100F00116087004F50071081F
:1002BE00F6000030F6042308F3002208F200F001E5
:1002CE00F1017508F0077608F13D0030F23DF33D7F
:0202DE00080016
:1002E0002000A201A301723021009900AA20E3207E
:1002F00002210130BC000030BD000230BE000030E1
:10030000BF000E2102302000BC000030BD000230D2
:10031000BE000030BF000E2101302000BC000030C4
:10032000BD00BE01BF01CA2002302000BC00003069
:10033000BD00BE01BF01CA200B30FB002630FC000F
:100340005D30FD00FD0BA229FC0BA229FB0BA229AD
:100350000000000098302000A8003A30A900AA014F
:10036000AB019830B8003A30B900BA01BB012000A7
:100370000230BC000030BD000230BE000030BF00C3
:100380000E2102302000BC000030BD00BE01BF01C4
:10039000CA200B30FB002630FC005D30FD00FD0B59
:1003A000CF29FC0BCF29FB0BCF2900000000023026
:1003B0002000BC000030BD000230BE000030BF0095
:1003C0000E2102302000BC000030BD009630BE007F
:1003D000BF01CA201530FB004B30FC00BE30FD00D1
:1003E000FD0BF029FC0BF029FB0BF0290000B729CD
:0203F000F829EA
:020000040001F9
:04000E00A43F1317E1
:00000001FF
