:02000000FC2CD6
:1000080070082000A7007108A6007208A5007308F0
:10001800A4007408A3007508A2007608A1008A014C
:100028008301111C1B281110A80A0319A90A131E01
:1000380033282600131C3328200013122100131222
:10004800043026009300E3247008AA007108AB006E
:100058007208AC007308AD00210013165828200060
:10006800131E58281312210013120530260093007E
:10007800E3247008BA007108BB007208BC0073085A
:10008800BD002A08BA022B08BB3B2C08BC3B2D0834
:10009800BD3B21001316E3247008B2007108B300B9
:1000A8007208B4007308B5002000931E712826005A
:1000B8001A1C712820009312210093120430260084
:1000C8009A00E3247008BE007108BF007208C000DF
:1000D8007308C1002100931696282000931E9628C5
:1000E800931221009312053026009A00E324700829
:1000F800B6007108B7007208B8007308B9003E0866
:10010800B6023F08B73B4008B83B4108B93B21005D
:100118009316E3247008B2007108B3007208B400A3
:100128007308B50020002708F0002608F10025080C
:10013800F2002408F3002308F4002208F50021083F
:04014800F6000900B4
:10014C007408F8027508031C750FF9027608031C75
:10015C00760FFA027708031C770FFB02F30D0730BA
:10016C00FC00730DF80DF90DFA0DFB0D7408731CE2
:10017C00CD28F8027508031C750FF9027608031CCC
:10018C00760FFA027708031C770FFB02DA28F807C0
:10019C0075080318750FF90776080318760FFA0718
:1001AC0077080318770FFB07F30DFC0BB728720DBC
:1001BC00F80DF90DFA0DFB0D7408731CF328F802F9
:1001CC007508031C750FF9027608031C760FFA02EA
:1001DC007708031C770FFB020029F8077508031832
:1001EC00750FF90776080318760FFA0777080318C6
:1001FC00770FFB07F20D0730FC00720DF80DF90DAF
:10020C00FA0DFB0D7408721C1929F8027508031CF1
:10021C00750FF9027608031C760FFA027708031C97
:10022C00770FFB022629F80775080318750FF907D5
:10023C0076080318760FFA0777080318770FFB0771
:10024C00F20DFC0B0329710DF80DF90DFA0DFB0DD8
:10025C007408721C3F29F8027508031C750FF9020B
:10026C007608031C760FFA027708031C770FFB0243
:10027C004C29F80775080318750FF9077608031849
:10028C00760FFA0777080318770FFB07F10D073085
:10029C00FC00710DF80DF90DFA0DFB0D7408711CB5
:1002AC006529F8027508031C750FF9027608031C02
:1002BC00760FFA027708031C770FFB027229F807F6
:1002CC0075080318750FF90776080318760FFA07E7
:1002DC0077080318770FFB07F10DFC0B4F29700DF6
:1002EC00F80DF90DFA0DFB0D7408711C8B29F80231
:1002FC007508031C750FF9027608031C760FFA02B9
:10030C007708031C770FFB029829F8077508031868
:10031C00750FF90776080318760FFA077708031894
:10032C00770FFB07F00D0730FC00700DF80DF90D81
:10033C00FA0DFB0D7408701CB129F8027508031C2A
:10034C00750FF9027608031C760FFA027708031C66
:10035C00770FFB02BE29F80775080318750FF9070C
:10036C0076080318760FFA0777080318770FFB0740
:10037C00F00DFC0B9B297018D1297408F80775082F
:10038C000318750FF90776080318760FFA07770824
:08039C000318770FFB070800AE
:1003A400FB09FA09F909F809F80A0319F90A031902
:0803B400FA0A0319FB0A080014
:1003BC007408003A031DF7297508003A031DF72944
:1003CC007608003A031DF7297708003A031DF72930
:1003DC00FF30F000FF30F100FF30F2007F30F3000F
:1003EC008F2A2000FC01F71BFC0AFD01FB01FA011E
:1003FC00F901F801730872047104700403198A2A54
:10040C0073087706A000A01BFD09F71F182AF40932
:10041C00F509F609F709F40A0319F50A0319F60A9E
:10042C000319F70AF31F252AF009F109F209F30958
:10043C00F00A0319F10A0319F20A0319F30A7308F3
:10044C007704A000A01B462AA620FC1B632AFD1FD4
:10045C008A2AF009F109F209F309F00A0319F10AE1
:10046C000319F20A0319F30AF809F909FA09FB0945
:10047C00F80A0319F90A0319FA0A0319FB0A8A2A5A
:10048C00F71F5D2AF31B572A7308FB007208FA004A
:10049C007108F9007008F800F301F201F101F001A4
:1004AC002D2AF301F201F101F001F00A0034F309F5
:1004BC00F209F109F009FC172A2AF80A0319F90ABA
:1004CC000319FA0A0319FB0A74087802031D2D2A72
:1004DC0075087902031D2D2A76087A02031D2D2A30
:1004EC0077087B02031D2D2AFB01FA01F901F801A3
:1004FC00F00A0319F10A0319F20A0319F30AF31F9C
:10050C002D2AA0012016FF34A0017C1C8E2AD2219A
:04051C00003E080095
:1005200020002230FC00F801F901FA01FB01FC0374
:100530000319C52A0310FB0CFA0CF90CF80CF30C88
:10054000F20CF10CF00C031C972AFC030319B72AD8
:100550007408F80775080318750FF907760803186B
:10056000760FFA0777080318770FFB079B2A7408A2
:10057000F80775080318750FF90776080318760F42
:0C058000FA0777080318770FFB07080044
:10058C00003020004B06031DCD2A01304A06031D06
:10059C00EA2A250016109610003020004D06031D87
:1005AC00D92A01304C06031DDE2A0E122500161422
:1005BC00003020004D06031DE52A02304C06031DB9
:1005CC00EA2A8E1225009614003020004B06031DDB
:1005DC00F12A02304A06031D0E2B25001D109D101A
:1005EC00003020004D06031DFD2A01304C06031D72
:1005FC00022B0C1225001D14003020004D06031D8B
:10060C00092B02304C06031D0E2B8C1225009D1459
:02061C000800D4
:10061E00FF302000AE00FF30AF00FF30B000FF30E3
:0E062E00B100F03021009E009D011D14080057
:10063C0020004A08F4004B08F5004C08F6004D0861
:10064C00F7004E08F4024F08F53B5008F63B5108F2
:10065C00F73B5A08F0005B08F1005C08F2005D08FB
:10066C00F3005608F0025708F13B5808F23B5908C2
:10067C00F33B90225208F4005308F5005408F6009E
:10068C005508F7004E08F4024F08F53B5008F63BAE
:10069C005108F73BDE215608F0075708F13D580882
:0806AC00F23D5908F33D08007E
:1006B400003020004B06031D612B01304A06031D48
:1006C400662B4C0825009100003020004B06031DCA
:1006D4006D2B02304A06031D722B4C08250098002E
:0206E40008000C
:1006E60020009812181698131813181421001114C4
:0806F6002000960197010800A5
:1006FE0020009C01FF309B0025009E101E1016143A
:10070E009614161196111612FF3091003C3093007C
:10071E009E111E111D149D141D119D111D12FF30D1
:0E072E0098003C309A00043020009C00080027
:10073C00043020004302031DA52B4C304202031849
:10074C00AB2B4C30C2000430C3004308073C031DE4
:10075C00B12B42086C3C0318B72B6C30C20007302D
:10076C00C30004304502031DBD2B4C30440203185A
:10077C00C32B4C30C4000430C5004508073C031D96
:10078C00C92B44086C3C0318CF2B6C30C4000730C9
:10079C00C50006304302031DD52B0E304202031850
:1007AC00E32B4308053C031DDD2B4208AA3C031830
:1007BC00E32BDC30C2000530C30006304502031DBC
:1007CC00E92B0E3044020318F72B4508053C031D9A
:1007DC00F12B4408AA3C0318F72BDC30C40005307D
:1007EC00C5004208CA004308CB00CC01CD014C30F7
:1007FC00CE000430CF00D001D1016C30D2000730D4
:10080C00D300D401D5010130D600FF30D700FF3022
:10081C00D800D900FF30DA00DB01DC01DD011E233A
:10082C007008C6007108C7004408CA004508CB0010
:10083C00CC01CD014C30CE000430CF00D001D10121
:10084C006C30D2000730D300D401D5010130D60072
:10085C00FF30D700FF30D800D900FF30DA00DB01C1
:10086C00DC01DD011E237008C8007108C90080304E
:10087C004706F00080307002031D462C0030460203
:10088C00031C5C2C0130CA000030CB000230CC00C1
:10089C000030CD00C62201302000CA000030CB0051
:1008AC004608CC004708CD005A23782C2000460877
:1008BC00003CC6004708031C013EC701C7020130BB
:1008CC00CA000030CB000130CC000030CD00C62275
:1008DC0001302000CA000030CB004608CC0047088D
:1008EC00CD005A23803020004906F0008030700281
:1008FC00031D822C00304802031C9B2C0230CA00C2
:10090C000030CB000230CC000030CD00C6220230CB
:10091C002000CA000030CB004808CC004908CD00AC
:10092C005A2320008C140C10B92C4808003CC80029
:10093C004908031C013EC901C9020230CA0000303B
:10094C00CB000130CC000030CD00C622023020009C
:10095C00CA000030CB004808CC004908CD005A230F
:08096C0020008C100C1408009F
:100974002200910193019E141E1423008C01013066
:100984008E000F230C108C100C158C150C128C126D
:100994000E148E140E158E150E128E128B170B1745
:1009A4001316931605302600930005309A000800AC
:1009B40012001E00F003031DDA2CF103031DDA2CD0
:0209C400080029
:1009C60020001708F100F00116087004F500710800
:1009D600F6000030F6042908F3002808F200F001BA
:1009E600F1017508F0077608F13D0030F23DF33D60
:0209F6000800F7
:1009F8002000A801A901723021009900BA247F23A0
:100A080073230130CA000030CB000230CC00003024
:100A1800CD00C62202302000CA000030CB000230D0
:100A2800CC000030CD00C62201302000CA000030C2
:100A3800CB00CC01CD015A2302302000CA0000307F
:100A4800CB00CC01CD015A230B30FB002630FC0033
:100A58005D30FD00FD0B2E2DFC0B2E2DFB0B2E2DDE
:100A68000000000098302000B6003A30B700B80106
:100A7800B9019830BA003A30BB00BC01BD013A0850
:100A8800C2003B08C3003608C4003708C5009E23CF
:040A9800432D4D2D70
:020000040001F9
:04000E00A43F1317E1
:00000001FF
