:02000000482C8A
:1000080070082000A7007108A6007208A5007308F0
:10001800A4007408A3007508A2007608A1008A014C
:100028008301111C1B281110C00A0319C10A131ED1
:1000380033282600131C3328200013122100131222
:10004800043026009300F0237008E1007108E200F4
:100058007208E3007308E4002100131660282000EA
:10006800131E602813122100131205302600930076
:10007800F02370082100A0007108A1007208A200F6
:100088007308A300200061082100A0022000620874
:100098002100A13B200063082100A23B2000640846
:1000A8002100A33B1316F0237008E5007108E60051
:1000B8007208E7007308E8002000931E79282600DC
:1000C8001A1C79282000931221009312043026006C
:1000D8009A00F0237008E9007108EA007208EB0042
:1000E8007308EC00210093169E282000931E9E287A
:1000F800931221009312053026009A00F02370080D
:10010800D1007108D2007208D3007308D4006908BE
:10011800D1026A08D23B6B08D33B6C08D43B210060
:100128009316F0237008E5007108E6007208E700EE
:100138007308E80020002708F0002608F1002508C9
:10014800F2002408F3002308F4002208F50021082F
:04015800F6000900A4
:10015C002000FB01FA01F901F801A001730DF80D63
:10016C007408F8027508031C750FF9027608031C55
:10017C00760FFA027708031C770FFB020001031CB1
:10018C000130A002F30D0730FC00730DF80DF90DD2
:10019C00FA0DFB0DA00D7408731CE628F802750807
:1001AC00031C750FF9027608031C760FFA02770808
:1001BC00031C770FFB020001031C0130A002F7287F
:1001CC00F80775080318750FF90776080318760FEA
:1001DC00FA0777080318770FFB07000103180130A3
:1001EC00A007F30DFC0BCB28720DF80DF90DFA0DD1
:1001FC00FB0DA00D7408731C1529F8027508031C5F
:10020C00750FF9027608031C760FFA027708031CA7
:10021C00770FFB020001031C0130A0022629F8070E
:10022C0075080318750FF90776080318760FFA0787
:10023C0077080318770FFB07000103180130A0079C
:10024C00F20D0730FC00720DF80DF90DFA0DFB0DD7
:10025C00A00D7408721C4429F8027508031C750F54
:10026C00F9027608031C760FFA027708031C770F45
:10027C00FB020001031C0130A0025529F807750888
:10028C000318750FF90776080318760FFA07770825
:10029C000318770FFB07000103180130A007F20DBC
:1002AC00FC0B2929710DF80DF90DFA0DFB0DA00DA4
:1002BC007408721C7329F8027508031C750FF90277
:1002CC007608031C760FFA027708031C770FFB02E3
:1002DC000001031C0130A0028429F80775080318DB
:1002EC00750FF90776080318760FFA0777080318C5
:1002FC00770FFB07000103180130A007F10D073041
:10030C00FC00710DF80DF90DFA0DFB0DA00D740824
:10031C00711CA229F8027508031C750FF9027608E6
:10032C00031C760FFA027708031C770FFB020001FF
:10033C00031C0130A002B329F80775080318750FC8
:10034C00F90776080318760FFA0777080318770F62
:10035C00FB07000103180130A007F10DFC0B8729E6
:10036C00700DF80DF90DFA0DFB0DA00D7408711C34
:10037C00D129F8027508031C750FF9027608031CC5
:10038C00760FFA027708031C770FFB020001031C9F
:10039C000130A002E229F80775080318750FF90758
:1003AC0076080318760FFA0777080318770FFB0700
:1003BC00000103180130A007F00D0730FC00700D90
:1003CC00F80DF90DFA0DFB0DA00D7408701C002A28
:1003DC00F8027508031C750FF9027608031C760FDA
:1003EC00FA027708031C770FFB020001031C013093
:1003FC00A002112AF80775080318750FF90776087B
:10040C000318760FFA0777080318770FFB0700011C
:10041C0003180130A007F00DFC0BE5297018242AF5
:10042C007408F80775080318750FF9077608031890
:0E043C00760FFA0777080318770FFB07080002
:10044A0023009E182A2A0000252A21003F0823009B
:04045A009A000800FC
:10045E002100B70120006D0884006E088500000899
:10046E00EF006F08003A03194C2A6F082100BF00F5
:10047E0025222100B70A370820006D0784000030BE
:0C048E006E3D85000008EF00382A0800D1
:10049A002000ED01EE0100306E02031D562A0A30DB
:1004AA006D020318682A6D0821003B0786002000A8
:1004BA006E0821003C3D8700203081002000ED0AB3
:1004CA000319EE0A502A6D0821003B078600200016
:1004DA006E0821003C3D8700810101302000ED02B9
:1004EA000030EE3B6D0821003B07BD0020006E087E
:1004FA0021003C3DBE000A30F400F501F601F70187
:10050A003708F0003808F1003908F2003A08F30019
:10051A00AE207808F0007908F1007A08F2007B082A
:10052A00F3003030F00721003D0886003E088700BE
:10053A00700881000A30F400F501F601F701370866
:10054A00F0003808F1003908F2003A08F300AE204A
:10055A0070082100B7007108B8007208B900730862
:10056A00BA000030F4007306031DC52A7408720627
:10057A00031DC52A74087106031DC52A7008003AAE
:10058A00031DC82ACE2A01302000ED020030EE3BBE
:04059A00772A0800B4
:10059E00FF302100A800FF30A900FF30AA00FF3075
:0C05AE00AB00F0309E009D011D14080001
:1005BA0025302100A4000230A500BF30A60000307B
:1005CA00A700FF302000D500FF30D6000030D7004A
:1005DA000030D800FF30D900FF30DA000030DB00ED
:1005EA000030DC00FF30DD00FF30DE000030DF00CD
:1005FA000030E00023009E1690309D0021008E16E8
:10060A000E162000911E0D2B23001908F000062B50
:02061A000800D6
:10061C00200098121816981318131814210011148E
:08062C0020009601970108006F
:1006340020009C01FF309B0025009E101E10161404
:100644009614161196111616FF3091003C30930043
:100654009E111E111D149D141D119D111D16FF3098
:0E06640098003C309A00043020009C000800F2
:10067200003021002D06031D402B01302C06031DE6
:10068200452B2E0825009100003021002D06031D68
:100692004C2B02302C06031D512B2E0825009800EE
:0206A20008004E
:1006A400003021002D06031D592B01302C06031D9B
:1006B400782B250016109610003021002F06031DFC
:1006C400652B01302E06031D6B2B20000E12250016
:1006D4001614003021002F06031D722B02302E0643
:1006E400031D782B20008E12250096140030210063
:1006F4002D06031D7F2B02302C06031D9E2B250087
:100704001D109D10003021002F06031D8B2B01307E
:100714002E06031D912B20000C1225001D14003001
:1007240021002F06031D982B02302E06031D9E2B3D
:0A07340020008C1225009D1408001F
:10073E0036302000ED000030EE002F222100200880
:10074E00B7002108B8002208B9002308BA00AC305F
:10075E00BB000030BC004D22AC302000ED0000305C
:10076E00EE002F223430ED000030EE002F222A3022
:10077E00ED000030EE002F2251082100B7002000BE
:10078E0052082100B800200053082100B9002000B3
:10079E0054082100BA00AC30BB000030BC004D2222
:1007AE00AC302000ED000030EE002F222830ED009E
:1007BE000030EE002F220230FB000430FC00BA3075
:1007CE00FD00FD0BE82BFC0BE82BFB0BE82B0000D0
:0207DE00080011
:1007E00020001708F100F00116087004F5007108E8
:1007F000F6000030F6044108F3004008F200F00172
:10080000F1017508F0077608F13D0030F23DF33D47
:020810000800DE
:100812002200910193019D171D1523009F15CF30D2
:100822009B009C011E15DD220230FB000430FC00FF
:10083200BA30FD00FD0B1B2CFC0B1B2CFB0B1B2CE5
:10084200000022009E141E1423008C0101308E0031
:10085200CF228C100C158C150C128C120E148E14C7
:100862000E158E150E128E128B170B17131693166A
:0C08720005302600930005309A000800B5
:10087E0012001E00F003031D3F2CF103031D3F2C3D
:02088E00080060
:10089000C42472302100990009241A230E234B30FE
:1008A000ED000030EE002F2201302100AC000030BE
:1008B000AD000230AE000030AF0052230230210004
:1008C000AC000030AD000230AE000030AF0052236B
:1008D00001302100AC000030AD00AE01AF01392382
:1008E00002302100AC000030AD00FF30AE00AF019F
:1008F00039230B30FB002630FC005D30FD00FD0B82
:100900007F2CFC0B7F2CFB0B7F2C00000000203089
:100910002000D1004E30D200D301D401203021007C
:10092000A0004E30A100A201A3019F23952C972C7B
:100988009B308400843085002930F0000130F1006C
:0C09980028308600003087003F24080053
:040936000A3400344B
:10093A00533469346E3461346C34203432343A348A
:04094A002034003421
:04094E000934003434
:10095200533469346E3461346C34203431343A3473
:040962002034003409
:040966000034003425
:10096A006D3469346B3472346F34653420340A342C
:02097A00003447
:0C097C0053347434613472347434003429
:020000040001F9
:04000E00A43F1317E1
:00000001FF
