:02000000692B6A
:1000080070082000A7007108A6007208A5007308F0
:10001800A4007408A3007508A2007608A1008A014C
:100028008301111C1B281110BE0A0319BF0A131ED5
:1000380033282600131C3328200013122100131222
:1000480004302600930035237008D7007108D800C3
:100058007208D9007308DA00210013164F2820000F
:10006800131E4F2813122100131205302600930087
:1000780035237008CB007108CC007208CD007308D6
:10008800CE005708CB025808CC3B5908CD3B5A083C
:10009800CE3B210013162000931E682826001A1C48
:1000A80068282000931221009312043026009A0039
:1000B80035237008DB007108DC007208DD00730866
:1000C800DE002100931684282000931E84289312B2
:1000D80021009312053026009A0035237008DF00AE
:1000E8007108E0007208E1007308E2005B08DF02B3
:1000F8005C08E03B5D08E13B5E08E23B21009316AB
:1001080020002708F0002608F1002508F20024083E
:10011800F3002308F4002208F5002108F60009007E
:100128002000FB01FA01F901F801A001730DF80D97
:100138007408F8027508031C750FF9027608031C89
:10014800760FFA027708031C770FFB020001031CE5
:100158000130A002F30D0730FC00730DF80DF90D06
:10016800FA0DFB0DA00D7408731CCC28F802750855
:10017800031C750FF9027608031C760FFA0277083C
:10018800031C770FFB020001031C0130A002DD28CD
:10019800F80775080318750FF90776080318760F1E
:1001A800FA0777080318770FFB07000103180130D7
:1001B800A007F30DFC0BB128720DF80DF90DFA0D1F
:1001C800FB0DA00D7408731CFB28F8027508031CAE
:1001D800750FF9027608031C760FFA027708031CDC
:1001E800770FFB020001031C0130A0020C29F8075D
:1001F80075080318750FF90776080318760FFA07BC
:1002080077080318770FFB07000103180130A007D0
:10021800F20D0730FC00720DF80DF90DFA0DFB0D0B
:10022800A00D7408721C2A29F8027508031C750FA2
:10023800F9027608031C760FFA027708031C770F79
:10024800FB020001031C0130A0023B29F8077508D6
:100258000318750FF90776080318760FFA07770859
:100268000318770FFB07000103180130A007F20DF0
:10027800FC0B0F29710DF80DF90DFA0DFB0DA00DF2
:100288007408721C5929F8027508031C750FF902C5
:100298007608031C760FFA027708031C770FFB0217
:1002A8000001031C0130A0026A29F8077508031829
:1002B800750FF90776080318760FFA0777080318F9
:1002C800770FFB07000103180130A007F10D073075
:1002D800FC00710DF80DF90DFA0DFB0DA00D740859
:1002E800711C8829F8027508031C750FF902760835
:1002F800031C760FFA027708031C770FFB02000134
:10030800031C0130A0029929F80775080318750F16
:10031800F90776080318760FFA0777080318770F96
:10032800FB07000103180130A007F10DFC0B6D2934
:10033800700DF80DF90DFA0DFB0DA00D7408711C68
:10034800B729F8027508031C750FF9027608031C13
:10035800760FFA027708031C770FFB020001031CD3
:100368000130A002C829F80775080318750FF907A6
:1003780076080318760FFA0777080318770FFB0734
:10038800000103180130A007F00D0730FC00700DC4
:10039800F80DF90DFA0DFB0DA00D7408701CE62977
:1003A800F8027508031C750FF9027608031C760F0E
:1003B800FA027708031C770FFB020001031C0130C7
:1003C800A002F729F80775080318750FF9077608CA
:1003D8000318760FFA0777080318770FFB07000151
:1003E80003180130A007F00DFC0BCB2970180A2A5E
:1003F8007408F80775080318750FF90776080318C5
:0E040800760FFA0777080318770FFB07080036
:1004160023009E18102A00000B2A20006F082300D4
:040426009A00080030
:10042A000B302000E7000230E8006F30E9000030AE
:10043A00EA00FF30E300FF30E4000030E50000305E
:10044A00E600FF30D300FF30D4000030D500003082
:10045A00D600FF30CF00FF30D0000030D10000308E
:10046A00D20023009E1690309D0021008E160E1693
:10047A002000911E442A23001908F0003D2A080092
:10048A0020009C01FF309B0025009E101E101614B0
:10049A009614161196111616FF3091003C309300EF
:1004AA009E111E111D149D141D119D111D16FF3044
:0E04BA0098003C309A00043020009C0008009E
:1004C80020009812181698131813181421001114E4
:0804D8002000960197010800C5
:1004E0002200910193019D171D1523009F15CF3008
:1004F0009B009C011E1515220230FB000430FC00FD
:10050000BA30FD00FD0B822AFC0B822AFB0B822AEB
:10051000000022009E141E1421000C158C150C12D4
:100520008C1223008C0121000E148E140E158E15D2
:100530000E128E12013023008E008B170B17210034
:100540001316931605302600930005309A00080014
:1005500012001E00F003031DA82AF103031DA82AA0
:02056000080091
:100562002000EB01EC0100306C02031DBA2A0A30B4
:100572006B020318CC2A6B0821002F07860020008B
:100582006C082100303D8700203081002000EB0AFA
:100592000319EC0AB42A6B0821002F0786002000F9
:1005A2006C082100303D8700810101302000EB0200
:1005B2000030EC3B6B0821002F072000ED006C0897
:1005C2002100303D2000EE000A30F400F501F60172
:1005D200F70121002B08F0002C08F1002D08F20091
:1005E2002E08F30094207808F0007908F1007A08C8
:1005F200F2007B08F3003030F0076D0886006E08C9
:100602008700700881000A30F400F501F601F70155
:1006120021002B08F0002C08F1002D08F2002E0812
:10062200F300942070082100AB007108AC0072083E
:10063200AD007308AE000030F4007306031D2B2BCF
:1006420074087206031D2B2B74087106031D2B2BD5
:100652007008003A031D2E2B342B01302000EB02D0
:080662000030EC3BDB2A08002C
:10066A0020001708F100F00116087004F50071085F
:10067A00F6000030F6043F08F3003E08F200F001ED
:10068A00F1017508F0077608F13D0030F23DF33DBF
:02069A00080056
:10069C002000EE016B0884006C0885000008ED005A
:1006AC006D08003A0319682B6D08EF000B2220002F
:1006BC00EE0A6E086B07840000306C3D8500000864
:0606CC00ED00562B0800B2
:1006D200EA237230210099007022452264222A30D6
:1006E200EB000030EC004E234B082100AB00200051
:1006F2004C082100AC0020004D082100AD00200074
:100702004E082100AE00A030AF000030B000B12290
:10071200A0302000EB000030EC004E232830EB002C
:100722000030EC004E233430EB000030EC004E235E
:100732005F082100AB00200060082100AC0020000F
:1007420061082100AD00200062082100AE00A03047
:10075200AF000030B000B122A0302000EB0000302A
:10076200EC004E234030EB000030EC004E231A30F8
:10077200FC00F830FD00FD0BBC2BFC0BBC2B000079
:04078200702BC22BEB
:1007D400C6308400833085002330F0000130F100FE
:0C07E4002830860000308700A8220800A2
:04078C0009340034F8
:10079000533469346E3461346C34203431343A3437
:0407A00020340034CD
:1007A400533469346E3461346C34203432343A3422
:0407B40020340034B9
:0407B80000340034D5
:0407BC000A340034C7
:1007C0006D3469346B3472346F34653420340A34D8
:0207D0000034F3
:020000040001F9
:04000E00A43F1317E1
:00000001FF
