:02000000702965
:1000080070082000A1007108A0008A018301111C5A
:1000180011281110A20A0319A30A131E2928260061
:10002800131C292820001312210013120430260063
:10003800930057217008AD007108AE007208AF0038
:100048007308B000210013164E282000131E4E28F6
:10005800131221001312053026009300572170084F
:10006800BD007108BE007208BF007308C0002D08EB
:10007800BD022E08BE3B2F08BF3B3008C03B210005
:10008800131657217008B1007108B2007208B30046
:100098007308B4002000931E672826001A1C6728DE
:1000A8002000931221009312043026009A00572151
:1000B8007008C1007108C2007208C3007308C40048
:1000C800210093168C282000931E8C28931221005F
:1000D8009312053026009A0057217008B90071085C
:1000E800BA007208BB007308BC004108B902420894
:1000F800BA3B4308BB3B4408BC3B2100931657213D
:100108007008B1007108B2007208B3007308B40037
:0C01180020002108F0002008F100090080
:10012400FF302000B500FF30B600FF30B700FF30CD
:0E013400B800F03021009E009D011D1408004F
:1001420012001E00F003031DA128F103031DA128C4
:020152000800A3
:100154002200910193019E141E1423008C0101308E
:100164008E0092200C108C100C158C150C128C1215
:100174000E148E140E158E150E128E128B170B176D
:100184001316931605302600930005309A000800D4
:10019400003020004606031DD12801304506031D0A
:1001A400D628470825009100003020004606031D8C
:1001B400DD2802304506031DE22847082500980083
:0201C400080031
:1001C60020009C01FF309B0025009E101E10161477
:1001D6009614161196111612FF3091003C309300BA
:1001E6009E111E111D149D141D119D111D12FF300F
:0E01F60098003C309A00043020009C00080065
:1002040020009812181698131813181421001114AA
:0802140020009601970108008B
:10021C00003020004606031D152901304506031D3C
:10022C003229250016109610003020004806031DB8
:10023C00212901304706031D26290E12250016140C
:10024C00003020004806031D2D2902304706031DEF
:10025C0032298E1225009614003020004606031D0C
:10026C00392902304506031D562925001D109D1005
:10027C00003020004806031D452901304706031DA8
:10028C004A290C1225001D14003020004806031DBD
:10029C00512902304706031D56298C1225009D1446
:0202AC00080048
:1002AE0020001708F100F00116087004F50071081F
:1002BE00F6000030F6042308F3002208F200F001E5
:1002CE00F1017508F0077608F13D0030F23DF33D7F
:0202DE00080016
:1002E0002000A201A3016D30A4006930A5006B308D
:1002F000A6007230A7006F30A8006530A90020303A
:10030000AA000A30AB00AC01723021009900AA208B
:10031000E32002210130C5000030C6000230C700D2
:100320000030C8000E2102302000C5000030C60099
:100330000230C7000030C8000E2101302000C50087
:100340000030C600C701C801CA2002302000C50025
:100350000030C600C701C801CA200B30FB002630A0
:10036000FC005D30FD00FD0BB329FC0BB329FB0B3A
:10037000B3290000000020302000B9004E30BA0040
:10038000BB01BC012030BD004E30BE00BF01C0012A
:100390008C19EB290B30FB002630FC005D30FD0092
:1003A000FD0BD029FC0BD029FB0BD029000000004D
:1003B0008C140C100B30FB002630FC005D30FD006F
:1003C000FD0BE029FC0BE029FB0BE02900000000FD
:0E03D0008C100C14ED298C100C10C829EE298D
:020000040001F9
:04000E00A43F1317E1
:00000001FF
