:02000000DC2CF6
:1000080070082000A6007108A5007208A4007308F3
:10001800A3007408A2007508A1007608A0008A0150
:100028008301111C1B281110E50A0319E60A131E87
:1000380033282600131C3328200013122100131222
:1000480004302600930039217008E7007108E800A1
:100058007208E9007308EA002100131660282000DE
:10006800131E602813122100131205302600930076
:10007800392170082100B0007108B1007208B2007F
:100088007308B300200067082100B0022000680848
:100098002100B13B200069082100B23B20006A081A
:1000A8002100B33B131639217008EB007108EC00EE
:1000B8007208ED007308EE002000931E79282600D0
:1000C8001A1C79282000931221009312043026006C
:1000D8009A00392170082100B4007108B50072082F
:1000E800B6007308B70093169E282000931E9E281A
:1000F800931221009312053026009A0039217008C6
:100108002100AC007108AD007208AE007308AF00A2
:100118003408AC023508AD3B3608AE3B3708AF3B78
:10012800931639217008EB007108EC007208ED0095
:100138007308EE0020002608F0002508F1002408C6
:10014800F2002308F3002208F4002108F500200833
:04015800F6000900A4
:10015C002000F801F9011030FC00710DF80DF90DBB
:10016C007408F8027508031C750FF9020318C528EA
:10017C007408F80775080318750FF9070310F00DCC
:08018C00F10DFC0BB328080083
:1001940023009E18CF280000CA28210062082300EB
:0401A4009A000800B5
:1001A80021005B0823009100920195131513151483
:0601B8001308F00008002E
:1001BE002100DF0105305F020318EF285F085D079D
:1001CE00860000305E3D870020308100DF0AE12886
:1001DE005F085D07860000305E3D87008101DF030A
:1001EE005F085D07E00000305E3DE1000A30F4007C
:1001FE00F5015B08F0005C08F100AE207808F00015
:10020E007908F1003030F00721006008860061089F
:10021E008700700881000A30F400F5015B08F000D9
:10022E005C08F100AE2070082100DB007108DC00D4
:10023E0000307106031D252900307006031D282984
:08024E002A29DF03F72808004C
:10025600FF302100C500FF30C600FF30C700FF3069
:0C026600C800F0309E009D011D1408002F
:1002720020001708F100F00116087004F50071085B
:10028200F6000030F6046608F3006508F200F0019B
:10029200F1017508F0077608F13D0030F23DF33DBB
:0202A200080052
:1002A400FA30F400F50121005B08F0005C08F1006D
:1002B400AE2070082100DB007108DC00DD01DE01E6
:1002C4005C085E02031D68295B085D0203188A2925
:1002D40020008C140330FB000830FC007730FD0054
:1002E400FD0B7229FC0B7229FB0B72298C10033055
:1002F400FB000830FC007730FD00FD0B7F29FC0B70
:100304007F29FB0B7F292100DD0A0319DE0A6229FC
:020314000800DF
:1003160021005B0823009100920121005C08230064
:1003260093001513951315150B08F0008B13553014
:100336009600AA3096009514F01BA3298B13A429C6
:0C0346008B171511951CA829A52908008B
:100352002100DE015B0884005C0885000008DD00E6
:100362005D08003A0319C3295D08E200CA20210092
:10037200DE0A5E085B07840000305C3D85000008F1
:06038200DD00B1290800B6
:10038800CA302100C9000030CA00E230CB0000307A
:10039800CC00FF30BD00FF30BE000030BF00003091
:1003A800C000FF30B900FF30BA000030BB00003099
:1003B800BC00FF30C100FF30C2000030C300003075
:1003C800C40023009E1690309D0021008E160E1644
:1003D8002000911EF32923001908F000EC290800D9
:1003E80027302100DB000030DC00A921DB01D4200C
:1003F80070082000EF0001302100DB00D4207008D5
:100408002100B8007008DC00DB0120006F08210023
:10041800DB040030DC04CD30DD000030DE00DF20FE
:10042800CD30DB000030DC00A9213830DB000030A3
:10043800DC00A9210230DB00D42070082000EF0086
:1004480003302100DB00D42070082100B8007008B8
:10045800DC00DB0120006F082100DB040030DC0435
:10046800CD30DD000030DE00DF20CD30DB00003095
:10047800DC00A9213630DB000030DC00A9211A306D
:10048800FC00F830FD00FD0B472AFC0B472A000052
:100498004430DB000030DC00A9210430DB00D4202C
:1004A80070082000EF0005302100DB00D420700820
:1004B8002100B8007008DC00DB0120006F08210073
:1004C800DB040030DC04CD30DD000030DE00DF204E
:1004D800CD30DB000030DC00A921A030DB0000308B
:1004E800DC00A9210630DB00D42070082000EF00D2
:1004F80007302100DB00D42070082100B800700804
:10050800DC00DB0120006F082100DB040030DC0484
:10051800CD30DD000030DE00DF20CD30DB000030E4
:10052800DC00A9216330DB000030DC00A9211A308F
:10053800FC00F830FD00FD0B9F2AFC0B9F2A0000F1
:020548000800A9
:10054A0020302100D1004E30D2002030D3004E306E
:10055A00D400CD01CE01CF01D0013921700821008C
:10056A00D7007108D8007208D9007308DA00200091
:10057A008C1439217008F4007108F5007208F6002D
:10058A007308F70021005708F4025808F53B590888
:10059A00F63B5A08F73B00307702031DDE2A1E306D
:1005AA007602031DDE2A84307502031DDE2A80309E
:1005BA0074020318022B21003008D5003108D60036
:1005CA0052083102031DEB2A510830020318F12A9E
:1005DA005508D1005608D2002C08D5002D08D6009F
:1005EA0054082D02031DFB2A53082C020318012B61
:1005FA005508D3005608D400BE2A2100FF30510501
:10060A00F30073082000EF0021005208F000F10106
:10061A00FF307005B800DB017308DC008B211A304B
:10062A00FC00F830FD00FD0B182BFC0B182B00000A
:10063A0001302100DB003808DC008B211A30FC0075
:10064A00F830FD00FD0B272BFC0B272B0000FF3099
:10065A0021005305F30073082000EF00210054081D
:10066A00F000F101FF307005B8000230DB007308BA
:10067A00DC008B211A30FC00F830FD00FD0B432B07
:10068A00FC0B432B000003302100DB003808DC00A0
:10069A008B211A30FC00F830FD00FD0B522BFC0BAD
:1006AA00522B000040302100DB000630DC005221D2
:1006BA00392170082100D7007108D8007208D900C2
:1006CA007308DA0020008C1439217008F4007108CC
:1006DA00F5007208F6007308F70021005708F402C3
:1006EA005808F53B5908F63B5A08F73B00307702A1
:1006FA00031D892B1E307602031D892B8430750257
:10070A00031D892B803074020318AD2B2100300899
:10071A00D5003108D60031084E02031D962B300849
:10072A004D0203189C2B5508CD005608CE002C0804
:10073A00D5002D08D6002D085002031DA62B2C0823
:10074A004F020318AC2B5508CF005608D000692B6E
:10075A002100FF304D05F30073082000EF0021004F
:10076A004E08F000F101FF307005B8000430DB00DC
:10077A007308DC008B211A30FC00F830FD00FD0BF9
:10078A00C42BFC0BC42B000005302100DB00380809
:10079A00DC008B211A30FC00F830FD00FD0BD32B56
:1007AA00FC0BD32B0000FF3021004F05F300730828
:1007BA002000EF0021005008F000F101FF30700521
:1007CA00B8000630DB007308DC008B211A30FC000D
:1007DA00F830FD00FD0BEF2BFC0BEF2B0000073070
:1007EA002100DB003808DC008B211A30FC00F830CD
:1007FA00FD00FD0BFE2BFC0BFE2B00004030210000
:0E080A00DB000630DC00522120008C100800BC
:10081800003021004E06031D132C01304D06031D28
:10082800182C4F0825009100003021004E06031DAA
:100838001F2C02304D06031D242C4F08250098005C
:020848000800A6
:10084A00003021004E06031D2C2C01304D06031DDD
:10085A004B2C250016109610003021005006031D5F
:10086A00382C01304F06031D3E2C20000E122500A5
:10087A001614003021005006031D452C02304F0685
:10088A00031D4B2C20008E122500961400302100E7
:10089A004E06031D522C02304D06031D712C2500F5
:1008AA001D109D10003021005006031D5E2C0130E2
:1008BA004F06031D642C20000C1225001D14003065
:1008CA0021005006031D6B2C02304F06031D712CAC
:0A08DA0020008C1225009D14080078
:1008E40012001E00F003031D722CF103031D722C71
:0208F4000800FA
:1008F60020009C01FF309B0025009E101E10161440
:100906009614161196111616FF3091003C3093007E
:100916009E111E111D149D141D119D111D16FF30D3
:0E09260098003C309A00043020009C0008002D
:100934002000981218169813181318142100111473
:08094400200096019701080054
:10094C002200910193019D171D1523009F15CF3097
:10095C009B009C011E15C4210230FB000430FC00DE
:10096C00BA30FD00FD0BB82CFC0BB82CFB0BB82CD3
:10097C00000022009E141E1423008C0101308E00F6
:10098C002B218C100C158C150C128C120E148E1431
:10099C000E158E150E128E128B170B17131693162F
:0C09AC0005302600930005309A0008007A
:1009B8008825723021009900A6247B249A2454307B
:1009C8002100DB000030DC00A9210130CD0000301F
:1009D800CE000230CF000030D000252402302100A4
:1009E800CD000030CE000230CF000030D0002524EA
:1009F80001302100CD000030CE00CF01D0010C2401
:100A080002302100CD000030CE00FF30CF00D001F1
:100A18000C240B30FB002630FC005D30FD00FD0B84
:100A2800132DFC0B132DFB0B132D000000002030A1
:100A38002100AC004E30AD00AE01AF012030B00057
:100A48004E30B100B201B301A522F4210230FB00FF
:100A58000430FC00BA30FD00FD0B302DFC0B302DAE
:0A0A6800FB0B302D0000292D382D66
:100B10003C308400853085003E30F0000130F1002B
:100B2000273086000030870072247A3084008530B8
:100B300085000C30F0000130F100A030860000305C
:100B40008700722486308400853085000230F000F2
:100B50000130F10065308600003087007224080003
:100A78004C344F34573420346334683461346E3422
:0E0A88006E3465346C3431343A34203400342A
:040A960009340034EB
:100A9A0020346334683461346E346E3465346C34B3
:080AAA0032343A3420340034E8
:100AB2004834493447344834203463346834613428
:100AC2006E346E3465346C3431343A34203400344C
:0C0AD200533474346134723474340034D2
:100ADE006D3469346B3472346F34653420340A34B7
:020AEE000034D2
:040AF0000A34003490
:100AF40020346334683461346E346E3465346C3459
:080B040032343A34203400348D
:040B0C00003400347D
:020000040001F9
:04000E00A43F1317E1
:00000001FF
