:02000000482E88
:1000080070082000A7007108A6007208A5007308F0
:10001800A4007408A3007508A2007608A100803126
:10002800111C1A281110B00A0319B10A131E32281C
:100038002600131C3228200013122100131204304A
:1000480026009300B2237008E1007108E2007208EC
:10005800E3007308E4002100131657282000131E3C
:100068005728131221001312053026009300B223DB
:100078007008C5007108C6007208C7007308C80078
:100088006108C5026208C63B6308C73B6408C83BF1
:1000980021001316B2237008D9007108DA0072081B
:1000A800DB007308DC002000931E702826001A1C51
:1000B80070282000931221009312043026009A0021
:1000C800B2237008DD007108DE007208DF007308D3
:1000D800E0002100931695282000931E952893127E
:1000E80021009312053026009A00B2237008C90037
:1000F8007108CA007208CB007308CC005D08C902F9
:100108005E08CA3B5F08CB3B6008CC3B21009316D6
:10011800B2237008D9007108DA007208DB0073088E
:10012800DC0020002708F0002608F1002508F2006E
:100138002408F3002308F4002208F5002108F6003B
:020148000900AC
:10014A007408F8027508031C750FF9027608031C77
:10015A00760FFA027708031C770FFB02F30D0730BC
:10016A00FC00730DF80DF90DFA0DFB0D7408731CE4
:10017A00CC28F8027508031C750FF9027608031CCF
:10018A00760FFA027708031C770FFB02D928F807C3
:10019A0075080318750FF90776080318760FFA071A
:1001AA0077080318770FFB07F30DFC0BB628720DBF
:1001BA00F80DF90DFA0DFB0D7408731CF228F802FC
:1001CA007508031C750FF9027608031C760FFA02EC
:1001DA007708031C770FFB02FF28F8077508031836
:1001EA00750FF90776080318760FFA0777080318C8
:1001FA00770FFB07F20D0730FC00720DF80DF90DB1
:10020A00FA0DFB0D7408721C1829F8027508031CF4
:10021A00750FF9027608031C760FFA027708031C99
:10022A00770FFB022529F80775080318750FF907D8
:10023A0076080318760FFA0777080318770FFB0773
:10024A00F20DFC0B0229710DF80DF90DFA0DFB0DDB
:10025A007408721C3E29F8027508031C750FF9020E
:10026A007608031C760FFA027708031C770FFB0245
:10027A004B29F80775080318750FF907760803184C
:10028A00760FFA0777080318770FFB07F10D073087
:10029A00FC00710DF80DF90DFA0DFB0D7408711CB7
:1002AA006429F8027508031C750FF9027608031C05
:1002BA00760FFA027708031C770FFB027129F807F9
:1002CA0075080318750FF90776080318760FFA07E9
:1002DA0077080318770FFB07F10DFC0B4E29700DF9
:1002EA00F80DF90DFA0DFB0D7408711C8A29F80234
:1002FA007508031C750FF9027608031C760FFA02BB
:10030A007708031C770FFB029729F807750803186B
:10031A00750FF90776080318760FFA077708031896
:10032A00770FFB07F00D0730FC00700DF80DF90D83
:10033A00FA0DFB0D7408701CB029F8027508031C2D
:10034A00750FF9027608031C760FFA027708031C68
:10035A00770FFB02BD29F80775080318750FF9070F
:10036A0076080318760FFA0777080318770FFB0742
:10037A00F00DFC0B9A297018D0297408F807750833
:10038A000318750FF90776080318760FFA07770826
:08039A000318770FFB070800B0
:1003A200FB09FA09F909F809F80A0319F90A031904
:0803B200FA0A0319FB0A080016
:1003BA0020002230FC00F801F901FA01FB01FC03DC
:1003CA000319122A0310FB0CFA0CF90CF80CF30CA3
:1003DA00F20CF10CF00C031CE429FC030319042AA7
:1003EA007408F80775080318750FF90776080318D3
:1003FA00760FFA0777080318770FFB07E8297408BE
:10040A00F80775080318750FF90776080318760FA9
:0C041A00FA0777080318770FFB070800AB
:100426007408003A031D2C2A7508003A031D2C2A6D
:100436007608003A031D2C2A7708003A031D2C2A59
:10044600FF30F000FF30F100FF30F2007F30F300A4
:10045600C42A2000FC01F71BFC0AFD01FB01FA017E
:10046600F901F80173087204710470040319BF2AB4
:1004760073087706A000A01BFD09F71F4D2AF40993
:10048600F509F609F709F40A0319F50A0319F60A34
:100496000319F70AF31F5A2AF009F109F209F309B9
:1004A600F00A0319F10A0319F20A0319F30A730889
:1004B6007704A000A01B7B2AA520FC1B982AFD1F01
:1004C600BF2AF009F109F209F309F00A0319F10A42
:1004D6000319F20A0319F30AF809F909FA09FB09DB
:1004E600F80A0319F90A0319FA0A0319FB0ABF2ABB
:1004F600F71F922AF31B8C2A7308FB007208FA0076
:100506007108F9007008F800F301F201F101F00139
:10051600622AF301F201F101F001F00A0034F30955
:10052600F209F109F009FC175F2AF80A0319F90A1A
:100536000319FA0A0319FB0A74087802031D622AD2
:1005460075087902031D622A76087A02031D622A5B
:1005560077087B02031D622AFB01FA01F901F80103
:10056600F00A0319F10A0319F20A0319F30AF31F31
:10057600622AA0012016FF34A0017C1CC32AD121C7
:04058600003E08002B
:10058A0021002A08F4002B08F5002C08F6002D0893
:10059A00F7002E08F4022F08F53B3008F63B310825
:1005AA00F73B3A08F0003B08F1003C08F2003D082E
:1005BA00F3003608F0023708F13B3808F23B3908F5
:1005CA00F33BDD2121003208F4003308F50034083A
:1005DA00F6003508F7002E08F4022F08F53B30081C
:1005EA00F63B3108F73B132221003608F00737089B
:0C05FA00F13D3808F23D3908F33D0800DF
:1006060023009E18082B0000032B20006F082300F0
:040616009A0008003E
:10061A00FF302000D100FF30D200FF30D300FF307E
:0E062A00D400F03021009E009D011D14080038
:10063800003021002B06031D232B01302A06031D41
:10064800282B2C0825009100003021002B06031DC3
:100658002F2B02302A06031D342B2C082500980066
:02066800080088
:10066A00003021002B06031D3C2B01302A06031DF6
:10067A005B2B250016109610003021002D06031D55
:10068A00482B01302C06031D4E2B20000E1225008C
:10069A001614003021002D06031D552B02302C069E
:1006AA00031D5B2B20008E122500961400302100BA
:1006BA002B06031D622B02302A06031D812B2500FF
:1006CA001D109D10003021002D06031D6E2B0130D8
:1006DA002C06031D742B20000C1225001D1400305B
:1006EA0021002D06031D7B2B02302C06031D812BB6
:0A06FA0020008C1225009D1408005A
:1007040003302000D5000330D6006F30D70000300E
:10071400D800FF30C100FF30C2000030C3000030F9
:10072400C400FF30CD00FF30CE000030CF000030D9
:10073400D000FF30E500FF30E6000030E700003075
:10074400E80023009E1690309D0021008E160E16A0
:100754002000911EB12B23001908F000AA2B0800D9
:1007640020001708F100F00116087004F500710864
:10077400F6000030F6043108F3003008F200F0010E
:10078400F1017508F0077608F13D0030F23DF33DC4
:0207940008005B
:10079600B2237008F4007108F5007208F6007308B9
:1007A600F7005908F4025A08F53B5B08F63B5C086B
:1007B600F73B7708003C031DEA2B76081E3C031D19
:1007C600EA2B7508843C031DEA2B7408803C031849
:1007D600F12B0130F0000030F100F32BF001F101B4
:0207E600080009
:1007E8002000EC01690884006A0885000008EB0015
:1007F8006B08003A03190E2C6B08EF000323200046
:10080800EC0A6C086907840000306A3D850000081E
:06081800EB00FC2B0800C0
:10081E00200098121816981318131814210011148A
:08082E0020009601970108006B
:10083600200045082100A600200046082100A70048
:10084600200049082100A80020004A082100A9002C
:10085600043020004602031D322C4C30450203189A
:10086600392C4C302100A6000430A70021002708AF
:10087600073C031D402C26086C3C0318462C6C30A4
:10088600A6000730A70004302902031D4C2C4C306B
:1008960028020318522C4C30A8000430A90029085D
:1008A600073C031D582C28086C3C03185E2C6C3042
:1008B600A8000730A90027080E3C031D642C260853
:1008C600D83C03186A2CDC30A6000530A70029089E
:1008D6000E3C031D702C2808D83C0318762CDC30FF
:1008E600A8000530A90005302702031D7C2CFA302C
:1008F600260203188A2C2708053C031D842C26088B
:10090600BE3C03188A2CDC30A6000530A700053053
:100916002902031D902CFA30280203189E2C290860
:10092600053C031D982C2808BE3C03189E2CDC3081
:10093600A8000530A9002608AA002708AB00AC01CC
:10094600AD014C30AE000430AF00B001B1016C30E7
:10095600B2000730B300B401B5010130B600FF3074
:10096600B700FF30B800B900FF30BA00BB01BC01C8
:10097600BD01C52270082000ED007108EE002100BF
:100986002808AA002908AB00AC01AD014C30AE0026
:100996000430AF00B001B1016C30B2000730B300D3
:1009A600B401B5010130B600FF30B700FF30B80022
:1009B600B900FF30BA00BB01BC01BD01C5227008F9
:1009C600A4007108A50020006D086E0403191C2DF3
:1009D600280829042A042B0403191C2DB2237008A5
:1009E600E9007108EA007208EB007308EC00B22314
:1009F6007008F4007108F5007208F6007308F70035
:100A06006908F4026A08F53B6B08F63B6C08F73B8D
:100A160000307702031D192D00307602031D192DB3
:100A260007307502031D192D6C30740203181C2D36
:100A3600FA2C6D08A8006E08A9000030A91BFF302B
:100A4600AA00AB0021002408250403195E2D20000E
:100A56002C082D042E042F0403195E2DB2237008D2
:100A66002100A0007108A1007208A2007308A3006B
:100A7600B2237008F4007108F5007208F6007308D6
:100A8600F70021002008F4022108F53B2208F63B76
:100A96002308F73B00307702031D5B2D00307602FA
:100AA600031D5B2D07307502031D5B2D6C30740230
:100AB60003185E2D3B2D20006D08AC006E08AD00BE
:100AC6000030AD1BFF30AE00AF0080306E06F00088
:100AD60080307002031D712D00306D02031C8C2DB9
:100AE60001302100AA000030AB000130AC0000301C
:100AF600AD00352301302100AA000030AB002000F4
:100B06006D082100AC0020006E082100AD001C23FA
:100B1600AD2D20006D08003CED006E08031C013E63
:100B2600EE01EE0201302100AA000030AB000230D7
:100B3600AC000030AD00352301302100AA000030A2
:100B4600AB0020006D082100AC0020006E082100DB
:100B5600AD001C23803021002506F0008030700295
:100B6600031DB72D00302402031CCD2D0230AA0030
:100B76000030AB000130AC000030AD003523023050
:100B86002100AA000030AB002408AC002508AD0007
:100B96001C23E92D21002408003CA4002508031C81
:100BA600013EA501A5020230AA000030AB000230CA
:100BB600AC000030AD00352302302100AA00003021
:0E0BC600AB002408AC002508AD001C2308007D
:100BD40020009C01FF309B0025009E101E1016145F
:100BE4009614161196111616FF3091003C3093009E
:100BF4009E111E111D149D141D119D111D16FF30F3
:0E0C040098003C309A00043020009C0008004C
:100C120012001E00F003031D092EF103031D092E0D
:020C22000800C8
:100C24002200910193019D171D1523009F15CF30BC
:100C34009B009C011E1582230230FB000430FC0043
:100C4400BA30FD00FD0B242EFC0B242EFB0B242EAE
:100C5400000022009E141E1423008C0101308E001B
:100C64000D238C100C158C150C128C120E148E1472
:100C74000E158E150E128E128B170B171316931654
:0C0C840005302600930005309A0008009F
:100C9000CA267230210099001226EA250F2432302C
:100CA000E9000030EA00F42301302100AA000030FE
:100CB000AB000230AC000030AD0035230230210023
:100CC000AA000030AB000230AC000030AD0035238C
:100CD00001302100AA000030AB00AC01AD011C23A3
:100CE00002302100AA000030AB00FF30AC00AD01A3
:100CF0001C230B30FB002630FC005D30FD00FD0B9B
:100D00007F2EFC0B7F2EFB0B7F2E0000000020307F
:100D10002000C9004E30CA00CB01CC012030C500F4
:100D20004E30C600C701C801CB23700871040319F7
:100D3000AA2E01302100AA000030AB00AC01AD01A9
:100D40001C2302302100AA000030AB00AC01AD0131
:0A0D50001C23AB2E1B24942EAC2EA6
:100D9400B0308400863085001930F0000130F10055
:0C0DA40028308600003087000926080077
:080D60000034003400340034BB
:080D68000034003400340034B3
:040D70000034003417
:0C0D74005334743461347234743400342D
:100D80006D3469346B3472346F34653420340A3412
:020D900000342D
:020000040001F9
:04000E00A43F1317E1
:00000001FF
