:02000000482E88
:1000080070082000A1008A018301131E1C28260005
:10001800131C1C2820001312210013120430260080
:100028009300210013162000960197011814302818
:100038002000131E30281312181021001312053047
:100048002600930020001708A500A4011608A404A0
:100058000030A504210093162000931E4428260092
:100068001A1C442820009312210093120430260001
:100078009A00210093162000960197011814582819
:100088002000931E5828931218102100931205304F
:1000980026009A0020001708A300A2011608A2044F
:1000A8000030A3042100131620002108F0000900E5
:1000B800FB09FA09F909F809F80A0319F90A0319F1
:0800C800FA0A0319FB0A080003
:1000D0002000F801F9011030FC00710DF80DF90D48
:1000E0007408F8027508031C750FF90203187F28BD
:1000F0007408F80775080318750FF9070310F00D59
:08010000F10DFC0B6D28080055
:100108007408F8027508031C750FF9027608031CB9
:10011800760FFA027708031C770FFB02F30D0730FE
:10012800FC00730DF80DF90DFA0DFB0D7408731C26
:10013800AB28F8027508031C750FF9027608031C32
:10014800760FFA027708031C770FFB02B828F80726
:1001580075080318750FF90776080318760FFA075C
:1001680077080318770FFB07F30DFC0B9528720D22
:10017800F80DF90DFA0DFB0D7408731CD128F8025F
:100188007508031C750FF9027608031C760FFA022E
:100198007708031C770FFB02DE28F8077508031899
:1001A800750FF90776080318760FFA07770803180A
:1001B800770FFB07F20D0730FC00720DF80DF90DF3
:1001C800FA0DFB0D7408721CF728F8027508031C59
:1001D800750FF9027608031C760FFA027708031CDC
:1001E800770FFB020429F80775080318750FF9073C
:1001F80076080318760FFA0777080318770FFB07B6
:10020800F20DFC0BE128710DF80DF90DFA0DFB0D3F
:100218007408721C1D29F8027508031C750FF90271
:100228007608031C760FFA027708031C770FFB0287
:100238002A29F80775080318750FF90776080318AF
:10024800760FFA0777080318770FFB07F10D0730C9
:10025800FC00710DF80DF90DFA0DFB0D7408711CF9
:100268004329F8027508031C750FF9027608031C68
:10027800760FFA027708031C770FFB025029F8075C
:1002880075080318750FF90776080318760FFA072B
:1002980077080318770FFB07F10DFC0B2D29700D5C
:1002A800F80DF90DFA0DFB0D7408711C6929F80297
:1002B8007508031C750FF9027608031C760FFA02FD
:1002C8007708031C770FFB027629F80775080318CF
:1002D800750FF90776080318760FFA0777080318D9
:1002E800770FFB07F00D0730FC00700DF80DF90DC6
:1002F800FA0DFB0D7408701C8F29F8027508031C91
:10030800750FF9027608031C760FFA027708031CAA
:10031800770FFB029C29F80775080318750FF90772
:1003280076080318760FFA0777080318770FFB0784
:10033800F00DFC0B79297018AF297408F8077508B7
:100348000318750FF90776080318760FFA07770868
:080358000318770FFB070800F2
:1003600020002230FC00F801F901FA01FB01FC0336
:100370000319E5290310FB0CFA0CF90CF80CF30C2B
:10038000F20CF10CF00C031CB729FC030319D7295C
:100390007408F80775080318750FF907760803182D
:1003A000760FFA0777080318770FFB07BB29740845
:1003B000F80775080318750FF90776080318760F04
:0C03C000FA0777080318770FFB07080006
:1003CC007408003A031DFF297508003A031DFF2924
:1003DC007608003A031DFF297708003A031DFF2910
:1003EC00FF30F000FF30F100FF30F2007F30F300FF
:1003FC00972A2000FC01F71BFC0AFD01FB01FA0106
:10040C00F901F80173087204710470040319922A3B
:10041C0073087706A000A01BFD09F71F202AF4091A
:10042C00F509F609F709F40A0319F50A0319F60A8E
:10043C000319F70AF31F2D2AF009F109F209F30940
:10044C00F00A0319F10A0319F20A0319F30A7308E3
:10045C007704A000A01B4E2A8420FC1B6B2AFD1FD6
:10046C00922AF009F109F209F309F00A0319F10AC9
:10047C000319F20A0319F30AF809F909FA09FB0935
:10048C00F80A0319F90A0319FA0A0319FB0A922A42
:10049C00F71F652AF31B5F2A7308FB007208FA002A
:1004AC007108F9007008F800F301F201F101F00194
:1004BC00352AF301F201F101F001F00A0034F309DD
:1004CC00F209F109F009FC17322AF80A0319F90AA2
:1004DC000319FA0A0319FB0A74087802031D352A5A
:1004EC0075087902031D352A76087A02031D352A10
:1004FC0077087B02031D352AFB01FA01F901F8018B
:10050C00F00A0319F10A0319F20A0319F30AF31F8B
:10051C00352AA0012016FF34A0017C1C962A5C20F1
:04052C00003E080085
:1005300023009E189D2A0000982A210034082300D9
:040540009A00080015
:100544002100B801053038020318B22A38083607EA
:1005540086000030373D870020308100B80AA42A85
:100564003808360786000030373D87008101B8031C
:1005740038083607B9000030373DBA000A30F400B5
:10058400F5013408F0003508F10068207808F0001F
:100594007908F1003030F0072100390886003A0864
:1005A4008700700881000A30F400F5013408F00077
:1005B4003508F100682070082100B4007108B50006
:1005C40000307106031DE82A00307006031DEB2A73
:0805D400ED2AB803BA2A080061
:1005DC0098302000D0000230D100B430D20000306E
:1005EC00D300FF30C800FF30C9000030CA00003013
:1005FC00CB00FF30CC00FF30CD000030CE000030FF
:10060C00CF00FF30C400FF30C5000030C600003002
:10061C00C70023009E1690309D0021008E160E16EA
:10062C002000911E1D2B23001908F000162B08002A
:10063C00003021002106031D252B01302006031D4F
:10064C002A2B220825009100003021002106031DD1
:10065C00312B02302006031D362B22082500980072
:02066C00080084
:10066E002100A20120088400210885000008200036
:10067E00EF006F08003A0319542B6F082100B400E5
:10068E0098222100A20A2208200784000030213D72
:0C069E00850000082000EF00402B080041
:1006AA00003021002106031D5C2B01302006031DAA
:1006BA007B2B250016109610003021002306031DFF
:1006CA00682B01302206031D6E2B20000E12250016
:1006DA001614003021002306031D752B0230220652
:1006EA00031D7B2B20008E1225009614003021005A
:1006FA002106031D822B02302006031DA12B250093
:10070A001D109D10003021002306031D8E2B013081
:10071A002206031D942B20000C1225001D14003004
:10072A0021002306031D9B2B02302206031DA12B49
:0A073A0020008C1225009D14080019
:100744002100A601A7012008A8002108A9008030E3
:100754002106F00080307002031DB22B003020020D
:100764000318C02B0130A6000030A7002008003C6D
:10077400A8002108031C013EA901A9022808B4000D
:100784002908B5002208B6002308B700A2220630C3
:10079400A4000030A5002508003C031DD32B240829
:1007A400003C0318EE2B2408220786002508233D6D
:1007B400870001302402F0000030253BF10070086E
:1007C400220784007108233D850000088100013060
:1007D400A4020030A53BCD2B220886002308870005
:1007E40020308100260827040319142CA401A50134
:1007F4002408220784002508233D85000008203AA8
:10080400031D082CA40A0319A50AFA2B0130A4021B
:100814000030A53B2408220786002508233D8700D5
:060824002D3081000800E8
:10082A00FF302000D400FF30D500FF30D600FF3063
:0E083A00D700F03021009E009D011D14080023
:1008480021002008F4002108F5002208F6002308FA
:10085800F7002408F4022508F53B2608F63B27088C
:10086800F73B3008F0003108F1003208F200330895
:10087800F3002C08F0022D08F13B2E08F23B2F085C
:10088800F33BB02121002808F4002908F5002A08C4
:10089800F6002B08F7002408F4022508F53B260883
:1008A800F63B2708F73BE62121002C08F0072D0826
:0C08B800F13D2E08F23D2F08F33D080032
:1008C40032302100A0000030A1003723600821004D
:1008D400A000200061082100A1006430A2000030C3
:1008E400A300A2236430A0000030A10037232630E7
:1008F4002100A0000030A100372328302100A000EF
:100904000030A100372362082100A0002000630802
:100914002100A1006430A2000030A300A2236430AF
:10092400A0000030A100372342302100A000003095
:10093400A10037230230FB000430FC00BA30FD0074
:10094400FD0BA22CFC0BA22CFB0BA22C000008001C
:10095400200098121816981318131814960197016A
:02096400080089
:1009660022009D171D1523009F15CF309B009C016B
:100976001E15EE220230FB000430FC00BA30FD00EA
:10098600FD0BC32CFC0BC32CFB0BC32C0000080077
:10099600043020006102031DD22C4C306002031883
:1009A600D82C4C30E0000430E1006108073C031D00
:1009B600DE2C60086C3C0318E42C6C30E000073039
:1009C600E10004306302031DEA2C4C306202031876
:1009D600F02C4C30E2000430E3006308073C031DB2
:1009E600F62C62086C3C0318FC2C6C30E2000730D5
:1009F600E30006306102031D022D0E30600203186B
:100A0600102D6108053C031D0A2D6008AA3C031839
:100A1600102DDC30E0000530E10006306302031DD6
:100A2600162D0E3062020318242D6308053C031DA3
:100A36001E2D6208AA3C0318242DDC30E200053086
:100A4600E30060082100A000200061082100A10049
:100A5600A201A3014C30A4000430A500A601A70101
:100A66006C30A8000730A900AA01AB010130AC0028
:100A7600FF30AD00FF30AE00AF00FF30B000B10177
:100A8600B201B301242470082000E4007108E500D7
:100A960062082100A000200063082100A100A20135
:100AA600A3014C30A4000430A500A601A7016C30B8
:100AB600A8000730A900AA01AB010130AC00FF3045
:100AC600AD00FF30AE00AF00FF30B000B101B201A3
:100AD600B301242470082000E6007108E700803086
:100AE6006506F00080307002031D7B2D0030640225
:100AF600031C962D01302100A0000030A100023019
:100B0600A2000030A300552301302100A0000030D0
:100B1600A100200064082100A20020006508210031
:100B2600A3001E23B72D20006408003CE4006508DE
:100B3600031C013EE501E50201302100A000003062
:100B4600A1000130A2000030A3005523013021008E
:100B5600A0000030A100200064082100A2002000AF
:100B660065082100A3001E23803020006706F000E0
:100B760080307002031DC12D00306602031CDC2D7F
:100B860002302100A0000030A1000230A200003097
:100B9600A300552302302100A0000030A100200050
:100BA60066082100A200200067082100A3001E237A
:100BB600FD2D20006608003CE6006708031C013E88
:100BC600E701E70202302100A0000030A100013059
:100BD600A2000030A300552302302100A0000030FF
:100BE600A100200066082100A2002000670821005D
:060BF600A3001E2308000D
:100BFC0020009C01FF309B0025009E101E10161437
:100C0C009614161196111612FF3091003C30930079
:100C1C009E111E111D149D141D119D111D12FF30CE
:0E0C2C0098003C309A00043020009C00080024
:100C3A0012001E00F003031D1D2EF103031D1D2EBD
:020C4A000800A0
:100C4C007230210099002200910193019E141E1410
:100C5C0023008C0101308E0015240C108C100C1507
:100C6C008C150C128C120E148E140E158E150E1271
:100C7C008E128B170B179316053026009300053038
:040C8C009A000800C2
:100C9000CC262626FE25AA24B3243C302100A00021
:100CA0000030A100372301302100A0000030A10056
:100CB0000230A2000030A300552302302100A00022
:100CC0000030A1000230A2000030A3005523013003
:100CD0002100A0000030A100A201A3011E230230C8
:100CE0002100A0000030A100A201A3011E230B30AF
:100CF000FB002630FC005D30FD00FD0B7D2EFC0B63
:100D00007D2EFB0B7D2E0000000020002408D80063
:100D10002508D900DA01DB012208DC002308DD0008
:100D2000DE01DF015808E0005908E1005C08E2003C
:100D30005D08E30062245808E0005908E1005C08FF
:0C0D4000E2005D08E300CB24852EA52E08
:100D9800A9308400863085002230F0000130F1004F
:0C0DA80022308600003087001D26080065
:040D5200DC34053454
:040D5600DC34053450
:040D5A000934003424
:100D5E00533469346E3461346C34203432343A3462
:040D6E0020340034F9
:100D7200533469346E3461346C34203431343A344F
:040D820020340034E5
:0C0D86005334743461347234743400341B
:040D92000A340034EB
:020000040001F9
:04000E00A43F1317E1
:00000001FF
